{
  "_format": "hh-sol-artifact-1",
  "contractName": "ERC721A",
  "sourceName": "contracts/ERC721A.sol",
  "abi": [
    {
      "inputs": [],
      "stateMutability": "nonpayable",
      "type": "constructor"
    },
    {
      "inputs": [],
      "name": "ApprovalCallerNotOwnerNorApproved",
      "type": "error"
    },
    {
      "inputs": [],
      "name": "ApprovalQueryForNonexistentToken",
      "type": "error"
    },
    {
      "inputs": [],
      "name": "ApprovalToCurrentOwner",
      "type": "error"
    },
    {
      "inputs": [],
      "name": "ApproveToCaller",
      "type": "error"
    },
    {
      "inputs": [],
      "name": "BalanceQueryForZeroAddress",
      "type": "error"
    },
    {
      "inputs": [],
      "name": "MintToZeroAddress",
      "type": "error"
    },
    {
      "inputs": [],
      "name": "MintZeroQuantity",
      "type": "error"
    },
    {
      "inputs": [],
      "name": "OwnerQueryForNonexistentToken",
      "type": "error"
    },
    {
      "inputs": [],
      "name": "TransferCallerNotOwnerNorApproved",
      "type": "error"
    },
    {
      "inputs": [],
      "name": "TransferFromIncorrectOwner",
      "type": "error"
    },
    {
      "inputs": [],
      "name": "TransferToNonERC721ReceiverImplementer",
      "type": "error"
    },
    {
      "inputs": [],
      "name": "TransferToZeroAddress",
      "type": "error"
    },
    {
      "inputs": [],
      "name": "URIQueryForNonexistentToken",
      "type": "error"
    },
    {
      "anonymous": false,
      "inputs": [
        {
          "indexed": true,
          "internalType": "address",
          "name": "owner",
          "type": "address"
        },
        {
          "indexed": true,
          "internalType": "address",
          "name": "approved",
          "type": "address"
        },
        {
          "indexed": true,
          "internalType": "uint256",
          "name": "tokenId",
          "type": "uint256"
        }
      ],
      "name": "Approval",
      "type": "event"
    },
    {
      "anonymous": false,
      "inputs": [
        {
          "indexed": true,
          "internalType": "address",
          "name": "owner",
          "type": "address"
        },
        {
          "indexed": true,
          "internalType": "address",
          "name": "operator",
          "type": "address"
        },
        {
          "indexed": false,
          "internalType": "bool",
          "name": "approved",
          "type": "bool"
        }
      ],
      "name": "ApprovalForAll",
      "type": "event"
    },
    {
      "anonymous": false,
      "inputs": [
        {
          "indexed": true,
          "internalType": "address",
          "name": "previousOwner",
          "type": "address"
        },
        {
          "indexed": true,
          "internalType": "address",
          "name": "newOwner",
          "type": "address"
        }
      ],
      "name": "OwnershipTransferred",
      "type": "event"
    },
    {
      "anonymous": false,
      "inputs": [
        {
          "indexed": true,
          "internalType": "address",
          "name": "from",
          "type": "address"
        },
        {
          "indexed": true,
          "internalType": "address",
          "name": "to",
          "type": "address"
        },
        {
          "indexed": true,
          "internalType": "uint256",
          "name": "tokenId",
          "type": "uint256"
        }
      ],
      "name": "Transfer",
      "type": "event"
    },
    {
      "inputs": [],
      "name": "FIXED_POINT",
      "outputs": [
        {
          "internalType": "uint16",
          "name": "",
          "type": "uint16"
        }
      ],
      "stateMutability": "view",
      "type": "function"
    },
    {
      "inputs": [
        {
          "internalType": "address",
          "name": "to",
          "type": "address"
        },
        {
          "internalType": "uint256",
          "name": "tokenId",
          "type": "uint256"
        }
      ],
      "name": "approve",
      "outputs": [],
      "stateMutability": "nonpayable",
      "type": "function"
    },
    {
      "inputs": [
        {
          "internalType": "address",
          "name": "_owner",
          "type": "address"
        }
      ],
      "name": "balanceOf",
      "outputs": [
        {
          "internalType": "uint256",
          "name": "",
          "type": "uint256"
        }
      ],
      "stateMutability": "view",
      "type": "function"
    },
    {
      "inputs": [
        {
          "internalType": "uint256",
          "name": "_endTime",
          "type": "uint256"
        }
      ],
      "name": "changeEndTime",
      "outputs": [],
      "stateMutability": "nonpayable",
      "type": "function"
    },
    {
      "inputs": [
        {
          "internalType": "uint256",
          "name": "_maxTotalSupply",
          "type": "uint256"
        }
      ],
      "name": "changeMaxTotalSupply",
      "outputs": [],
      "stateMutability": "nonpayable",
      "type": "function"
    },
    {
      "inputs": [
        {
          "internalType": "uint256",
          "name": "_startTime",
          "type": "uint256"
        }
      ],
      "name": "changeStartTime",
      "outputs": [],
      "stateMutability": "nonpayable",
      "type": "function"
    },
    {
      "inputs": [],
      "name": "creator",
      "outputs": [
        {
          "internalType": "address",
          "name": "",
          "type": "address"
        }
      ],
      "stateMutability": "view",
      "type": "function"
    },
    {
      "inputs": [
        {
          "internalType": "bool",
          "name": "_enable",
          "type": "bool"
        }
      ],
      "name": "enableWhitelistMode",
      "outputs": [],
      "stateMutability": "nonpayable",
      "type": "function"
    },
    {
      "inputs": [
        {
          "internalType": "uint256",
          "name": "",
          "type": "uint256"
        }
      ],
      "name": "feeDistributions",
      "outputs": [
        {
          "internalType": "address",
          "name": "recipient",
          "type": "address"
        },
        {
          "internalType": "uint16",
          "name": "rate",
          "type": "uint16"
        }
      ],
      "stateMutability": "view",
      "type": "function"
    },
    {
      "inputs": [],
      "name": "feeRate",
      "outputs": [
        {
          "internalType": "uint16",
          "name": "",
          "type": "uint16"
        }
      ],
      "stateMutability": "view",
      "type": "function"
    },
    {
      "inputs": [],
      "name": "forceFinishMinting",
      "outputs": [],
      "stateMutability": "nonpayable",
      "type": "function"
    },
    {
      "inputs": [
        {
          "internalType": "uint256",
          "name": "tokenId",
          "type": "uint256"
        }
      ],
      "name": "getApproved",
      "outputs": [
        {
          "internalType": "address",
          "name": "",
          "type": "address"
        }
      ],
      "stateMutability": "view",
      "type": "function"
    },
    {
      "inputs": [],
      "name": "getFeeDistributions",
      "outputs": [
        {
          "components": [
            {
              "internalType": "address",
              "name": "recipient",
              "type": "address"
            },
            {
              "internalType": "uint16",
              "name": "rate",
              "type": "uint16"
            }
          ],
          "internalType": "struct ERC721A.RateDistribute[]",
          "name": "",
          "type": "tuple[]"
        }
      ],
      "stateMutability": "view",
      "type": "function"
    },
    {
      "inputs": [],
      "name": "getTimestamp",
      "outputs": [
        {
          "internalType": "uint256",
          "name": "currentTime",
          "type": "uint256"
        },
        {
          "internalType": "uint256",
          "name": "endTime",
          "type": "uint256"
        }
      ],
      "stateMutability": "view",
      "type": "function"
    },
    {
      "inputs": [
        {
          "internalType": "address",
          "name": "_owner",
          "type": "address"
        },
        {
          "internalType": "address",
          "name": "operator",
          "type": "address"
        }
      ],
      "name": "isApprovedForAll",
      "outputs": [
        {
          "internalType": "bool",
          "name": "",
          "type": "bool"
        }
      ],
      "stateMutability": "view",
      "type": "function"
    },
    {
      "inputs": [],
      "name": "maxMintAmount",
      "outputs": [
        {
          "internalType": "uint256",
          "name": "",
          "type": "uint256"
        }
      ],
      "stateMutability": "view",
      "type": "function"
    },
    {
      "inputs": [],
      "name": "maxSupply",
      "outputs": [
        {
          "internalType": "uint256",
          "name": "",
          "type": "uint256"
        }
      ],
      "stateMutability": "view",
      "type": "function"
    },
    {
      "inputs": [],
      "name": "mintAvailable",
      "outputs": [
        {
          "internalType": "bool",
          "name": "",
          "type": "bool"
        }
      ],
      "stateMutability": "view",
      "type": "function"
    },
    {
      "inputs": [
        {
          "internalType": "uint256",
          "name": "_quantity",
          "type": "uint256"
        }
      ],
      "name": "mintNFT",
      "outputs": [],
      "stateMutability": "payable",
      "type": "function"
    },
    {
      "inputs": [
        {
          "internalType": "address",
          "name": "_recipient",
          "type": "address"
        },
        {
          "internalType": "uint256",
          "name": "_quantity",
          "type": "uint256"
        }
      ],
      "name": "mintNFTTo",
      "outputs": [],
      "stateMutability": "payable",
      "type": "function"
    },
    {
      "inputs": [],
      "name": "mintingEndTime",
      "outputs": [
        {
          "internalType": "uint256",
          "name": "",
          "type": "uint256"
        }
      ],
      "stateMutability": "view",
      "type": "function"
    },
    {
      "inputs": [],
      "name": "mintingFinished",
      "outputs": [
        {
          "internalType": "bool",
          "name": "",
          "type": "bool"
        }
      ],
      "stateMutability": "view",
      "type": "function"
    },
    {
      "inputs": [],
      "name": "mintingPrice",
      "outputs": [
        {
          "internalType": "uint256",
          "name": "",
          "type": "uint256"
        }
      ],
      "stateMutability": "view",
      "type": "function"
    },
    {
      "inputs": [],
      "name": "mintingStartTime",
      "outputs": [
        {
          "internalType": "uint256",
          "name": "",
          "type": "uint256"
        }
      ],
      "stateMutability": "view",
      "type": "function"
    },
    {
      "inputs": [],
      "name": "name",
      "outputs": [
        {
          "internalType": "string",
          "name": "",
          "type": "string"
        }
      ],
      "stateMutability": "view",
      "type": "function"
    },
    {
      "inputs": [],
      "name": "owner",
      "outputs": [
        {
          "internalType": "address",
          "name": "",
          "type": "address"
        }
      ],
      "stateMutability": "view",
      "type": "function"
    },
    {
      "inputs": [
        {
          "internalType": "uint256",
          "name": "tokenId",
          "type": "uint256"
        }
      ],
      "name": "ownerOf",
      "outputs": [
        {
          "internalType": "address",
          "name": "",
          "type": "address"
        }
      ],
      "stateMutability": "view",
      "type": "function"
    },
    {
      "inputs": [],
      "name": "renounceOwnership",
      "outputs": [],
      "stateMutability": "nonpayable",
      "type": "function"
    },
    {
      "inputs": [
        {
          "internalType": "address",
          "name": "from",
          "type": "address"
        },
        {
          "internalType": "address",
          "name": "to",
          "type": "address"
        },
        {
          "internalType": "uint256",
          "name": "tokenId",
          "type": "uint256"
        }
      ],
      "name": "safeTransferFrom",
      "outputs": [],
      "stateMutability": "nonpayable",
      "type": "function"
    },
    {
      "inputs": [
        {
          "internalType": "address",
          "name": "from",
          "type": "address"
        },
        {
          "internalType": "address",
          "name": "to",
          "type": "address"
        },
        {
          "internalType": "uint256",
          "name": "tokenId",
          "type": "uint256"
        },
        {
          "internalType": "bytes",
          "name": "_data",
          "type": "bytes"
        }
      ],
      "name": "safeTransferFrom",
      "outputs": [],
      "stateMutability": "nonpayable",
      "type": "function"
    },
    {
      "inputs": [
        {
          "internalType": "address",
          "name": "operator",
          "type": "address"
        },
        {
          "internalType": "bool",
          "name": "approved",
          "type": "bool"
        }
      ],
      "name": "setApprovalForAll",
      "outputs": [],
      "stateMutability": "nonpayable",
      "type": "function"
    },
    {
      "inputs": [
        {
          "internalType": "uint256",
          "name": "_maxSupply",
          "type": "uint256"
        },
        {
          "internalType": "uint256",
          "name": "_mintPrice",
          "type": "uint256"
        },
        {
          "internalType": "uint256",
          "name": "_startTimestamp",
          "type": "uint256"
        },
        {
          "internalType": "uint256",
          "name": "_endTimestamp",
          "type": "uint256"
        },
        {
          "internalType": "uint256",
          "name": "_maxMintAmount",
          "type": "uint256"
        },
        {
          "internalType": "address",
          "name": "_creator",
          "type": "address"
        },
        {
          "internalType": "string",
          "name": "name_",
          "type": "string"
        },
        {
          "internalType": "string",
          "name": "symbol_",
          "type": "string"
        },
        {
          "internalType": "string",
          "name": "baseUri_",
          "type": "string"
        }
      ],
      "name": "setBaseInfo",
      "outputs": [],
      "stateMutability": "nonpayable",
      "type": "function"
    },
    {
      "inputs": [
        {
          "internalType": "string",
          "name": "_uri",
          "type": "string"
        }
      ],
      "name": "setBaseUri",
      "outputs": [],
      "stateMutability": "nonpayable",
      "type": "function"
    },
    {
      "inputs": [
        {
          "internalType": "uint16",
          "name": "_feeRate",
          "type": "uint16"
        }
      ],
      "name": "setCollectionFeeRate",
      "outputs": [],
      "stateMutability": "nonpayable",
      "type": "function"
    },
    {
      "inputs": [
        {
          "internalType": "uint256",
          "name": "_maxMintAmount",
          "type": "uint256"
        }
      ],
      "name": "setMaxMintAmount",
      "outputs": [],
      "stateMutability": "nonpayable",
      "type": "function"
    },
    {
      "inputs": [
        {
          "internalType": "address[]",
          "name": "_recipients",
          "type": "address[]"
        },
        {
          "internalType": "uint16[]",
          "name": "_weights",
          "type": "uint16[]"
        }
      ],
      "name": "setMultipleRecipients",
      "outputs": [],
      "stateMutability": "nonpayable",
      "type": "function"
    },
    {
      "inputs": [
        {
          "internalType": "uint256",
          "name": "_price",
          "type": "uint256"
        }
      ],
      "name": "setPriceForWhitelist",
      "outputs": [],
      "stateMutability": "nonpayable",
      "type": "function"
    },
    {
      "inputs": [
        {
          "internalType": "address[]",
          "name": "_users",
          "type": "address[]"
        },
        {
          "internalType": "bool",
          "name": "_isAdd",
          "type": "bool"
        }
      ],
      "name": "setWhitelist",
      "outputs": [],
      "stateMutability": "nonpayable",
      "type": "function"
    },
    {
      "inputs": [
        {
          "internalType": "bytes4",
          "name": "interfaceId",
          "type": "bytes4"
        }
      ],
      "name": "supportsInterface",
      "outputs": [
        {
          "internalType": "bool",
          "name": "",
          "type": "bool"
        }
      ],
      "stateMutability": "view",
      "type": "function"
    },
    {
      "inputs": [],
      "name": "symbol",
      "outputs": [
        {
          "internalType": "string",
          "name": "",
          "type": "string"
        }
      ],
      "stateMutability": "view",
      "type": "function"
    },
    {
      "inputs": [
        {
          "internalType": "uint256",
          "name": "tokenId",
          "type": "uint256"
        }
      ],
      "name": "tokenURI",
      "outputs": [
        {
          "internalType": "string",
          "name": "",
          "type": "string"
        }
      ],
      "stateMutability": "view",
      "type": "function"
    },
    {
      "inputs": [],
      "name": "totalSupply",
      "outputs": [
        {
          "internalType": "uint256",
          "name": "",
          "type": "uint256"
        }
      ],
      "stateMutability": "view",
      "type": "function"
    },
    {
      "inputs": [
        {
          "internalType": "address",
          "name": "from",
          "type": "address"
        },
        {
          "internalType": "address",
          "name": "to",
          "type": "address"
        },
        {
          "internalType": "uint256",
          "name": "tokenId",
          "type": "uint256"
        }
      ],
      "name": "transferFrom",
      "outputs": [],
      "stateMutability": "nonpayable",
      "type": "function"
    },
    {
      "inputs": [
        {
          "internalType": "address",
          "name": "newOwner",
          "type": "address"
        }
      ],
      "name": "transferOwnership",
      "outputs": [],
      "stateMutability": "nonpayable",
      "type": "function"
    },
    {
      "inputs": [
        {
          "internalType": "address",
          "name": "",
          "type": "address"
        }
      ],
      "name": "whitelist",
      "outputs": [
        {
          "internalType": "bool",
          "name": "",
          "type": "bool"
        }
      ],
      "stateMutability": "view",
      "type": "function"
    },
    {
      "inputs": [],
      "name": "whitelistMintingPrice",
      "outputs": [
        {
          "internalType": "uint256",
          "name": "",
          "type": "uint256"
        }
      ],
      "stateMutability": "view",
      "type": "function"
    },
    {
      "inputs": [],
      "name": "whitelistMode",
      "outputs": [
        {
          "internalType": "bool",
          "name": "",
          "type": "bool"
        }
      ],
      "stateMutability": "view",
      "type": "function"
    }
  ],
  "bytecode": "0x608060405234801561001057600080fd5b5061001a3361001f565b61006f565b600080546001600160a01b038381166001600160a01b0319831681178455604051919092169283917f8be0079c531659141344cd1fd0a4f28419497f9722a3daafe3b4186f6b6457e09190a35050565b612e97806200007f6000396000f3fe6080604052600436106102885760003560e01c806370c757ec1161015a57806399f19cea116100c1578063c87b56dd1161007a578063c87b56dd146107b6578063ccaa422b146107d6578063d5abeb01146107f6578063dfef5f691461080c578063e985e9c514610822578063f2fde38b1461084257600080fd5b806399f19cea146106f15780639b19251a14610706578063a0bcfc7f14610736578063a22cb46514610756578063b88d4fde14610776578063c589c1541461079657600080fd5b80638cd3da6e116101135780638cd3da6e146106675780638da5cb5b1461067d578063926427441461069b57806395d89b41146106ae57806396188eb2146106c3578063978bbdb9146106d657600080fd5b806370c757ec14610587578063715018a6146105a757806379afb064146105bc5780637a458d7a146105dc57806387c11cb0146106055780638aa5b2c31461064757600080fd5b8063239c70ae116101fe5780633c271a05116101b75780633c271a05146104d157806342842e0e146104f157806355c6f4b8146105115780636352211e146105315780636f23fb1f1461055157806370a082311461056757600080fd5b8063239c70ae1461042357806323b872dd1461043957806328b90c0e1461045957806330129b0d146104795780633052b75e1461049b57806335db70b5146104bb57600080fd5b8063088a4ed011610250578063088a4ed01461035d578063095ea7b31461037f57806311ee6e031461039f5780631666a46e146103bf57806318160ddd146103d4578063188ec356146103f757600080fd5b806301ffc9a71461028d57806302d05d3f146102c257806305d2035b146102fa57806306fdde031461031b578063081812fc1461033d575b600080fd5b34801561029957600080fd5b506102ad6102a8366004612597565b610862565b60405190151581526020015b60405180910390f35b3480156102ce57600080fd5b50600c546102e2906001600160a01b031681565b6040516001600160a01b0390911681526020016102b9565b34801561030657600080fd5b506013546102ad906301000000900460ff1681565b34801561032757600080fd5b506103306108b4565b6040516102b99190612604565b34801561034957600080fd5b506102e2610358366004612617565b610946565b34801561036957600080fd5b5061037d610378366004612617565b61098a565b005b34801561038b57600080fd5b5061037d61039a36600461264c565b610a26565b3480156103ab57600080fd5b5061037d6103ba366004612763565b610ab3565b3480156103cb57600080fd5b5061037d610d1f565b3480156103e057600080fd5b50600254600154035b6040519081526020016102b9565b34801561040357600080fd5b5061040e6011544291565b604080519283526020830191909152016102b9565b34801561042f57600080fd5b506103e9600e5481565b34801561044557600080fd5b5061037d610454366004612824565b610d83565b34801561046557600080fd5b5061037d610474366004612617565b610d8e565b34801561048557600080fd5b5061048e610dd8565b6040516102b99190612860565b3480156104a757600080fd5b5061037d6104b6366004612617565b610e4f565b3480156104c757600080fd5b506103e9600f5481565b3480156104dd57600080fd5b5061037d6104ec3660046128cc565b610edd565b3480156104fd57600080fd5b5061037d61050c366004612824565b610fcd565b34801561051d57600080fd5b5061037d61052c366004612990565b610fe8565b34801561053d57600080fd5b506102e261054c366004612617565b6112a1565b34801561055d57600080fd5b506103e960105481565b34801561057357600080fd5b506103e9610582366004612a59565b6112b3565b34801561059357600080fd5b506013546102ad9062010000900460ff1681565b3480156105b357600080fd5b5061037d611301565b3480156105c857600080fd5b5061037d6105d7366004612a74565b611315565b3480156105e857600080fd5b506105f26103e881565b60405161ffff90911681526020016102b9565b34801561061157600080fd5b50610625610620366004612617565b611376565b604080516001600160a01b03909316835261ffff9091166020830152016102b9565b34801561065357600080fd5b5061037d610662366004612617565b6113ac565b34801561067357600080fd5b506103e960115481565b34801561068957600080fd5b506000546001600160a01b03166102e2565b61037d6106a9366004612617565b61143c565b3480156106ba57600080fd5b50610330611449565b61037d6106d136600461264c565b611458565b3480156106e257600080fd5b506013546105f29061ffff1681565b3480156106fd57600080fd5b506102ad61146e565b34801561071257600080fd5b506102ad610721366004612a59565b60076020526000908152604090205460ff1681565b34801561074257600080fd5b5061037d610751366004612a8f565b6114b7565b34801561076257600080fd5b5061037d610771366004612ac3565b611507565b34801561078257600080fd5b5061037d610791366004612aed565b61159c565b3480156107a257600080fd5b5061037d6107b1366004612617565b6115d6565b3480156107c257600080fd5b506103306107d1366004612617565b61167c565b3480156107e257600080fd5b5061037d6107f1366004612b68565b611700565b34801561080257600080fd5b506103e9600d5481565b34801561081857600080fd5b506103e960125481565b34801561082e57600080fd5b506102ad61083d366004612b83565b61175d565b34801561084e57600080fd5b5061037d61085d366004612a59565b61178b565b60006001600160e01b031982166380ac58cd60e01b148061089357506001600160e01b03198216635b5e139f60e01b145b806108ae57506301ffc9a760e01b6001600160e01b03198316145b92915050565b6060600380546108c390612bad565b80601f01602080910402602001604051908101604052809291908181526020018280546108ef90612bad565b801561093c5780601f106109115761010080835404028352916020019161093c565b820191906000526020600020905b81548152906001019060200180831161091f57829003601f168201915b5050505050905090565b600061095182611801565b61096e576040516333d1c03960e21b815260040160405180910390fd5b506000908152600960205260409020546001600160a01b031690565b600c5433906001600160a01b03168114806109b257506000546001600160a01b038281169116145b6109d75760405162461bcd60e51b81526004016109ce90612be7565b60405180910390fd5b600d548210610a205760405162461bcd60e51b81526020600482015260156024820152741a5b9d985b1a59081b585e135a5b9d105b5bdd5b9d605a1b60448201526064016109ce565b50600e55565b6000610a31826112a1565b9050806001600160a01b0316836001600160a01b031603610a655760405163250fdee360e21b815260040160405180910390fd5b336001600160a01b03821614801590610a855750610a83813361175d565b155b15610aa3576040516367d9dca160e11b815260040160405180910390fd5b610aae83838361182d565b505050565b600c5433906001600160a01b0316811480610adb57506000546001600160a01b038281169116145b610af75760405162461bcd60e51b81526004016109ce90612be7565b825180610b3a5760405162461bcd60e51b81526020600482015260116024820152707a65726f206c656e67746820617272617960781b60448201526064016109ce565b82518114610b7b5760405162461bcd60e51b815260206004820152600e60248201526d6469736d6174636820617272617960901b60448201526064016109ce565b6000805b82811015610c0857848181518110610b9957610b99612c0d565b602002602001015182610bac9190612c39565b91506103e861ffff83161115610bf65760405162461bcd60e51b815260206004820152600f60248201526e696e76616c6964207765696768747360881b60448201526064016109ce565b80610c0081612c5b565b915050610b7f565b5061ffff81166103e814610c4f5760405162461bcd60e51b815260206004820152600e60248201526d1a5b9d985b1a59081dd95a59da1d60921b60448201526064016109ce565b610c5b600b6000612545565b60005b82811015610d1757600b6040518060400160405280888481518110610c8557610c85612c0d565b60200260200101516001600160a01b03168152602001878481518110610cad57610cad612c0d565b60209081029190910181015161ffff90811690925283546001810185556000948552938190208351940180549390910151909116600160a01b026001600160b01b03199092166001600160a01b039093169290921717905580610d0f81612c5b565b915050610c5e565b505050505050565b600c5433906001600160a01b0316811480610d4757506000546001600160a01b038281169116145b610d635760405162461bcd60e51b81526004016109ce90612be7565b60025460015403600d55506013805463ff00000019166301000000179055565b610aae838383611889565b600c5433906001600160a01b0316811480610db657506000546001600160a01b038281169116145b610dd25760405162461bcd60e51b81526004016109ce90612be7565b50601055565b6060600b805480602002602001604051908101604052809291908181526020016000905b82821015610e4657600084815260209081902060408051808201909152908401546001600160a01b0381168252600160a01b900461ffff1681830152825260019092019101610dfc565b50505050905090565b600c5433906001600160a01b0316811480610e7757506000546001600160a01b038281169116145b610e935760405162461bcd60e51b81526004016109ce90612be7565b6012548211610ed75760405162461bcd60e51b815260206004820152601060248201526f6265666f726520737461727454696d6560801b60448201526064016109ce565b50601155565b600c5433906001600160a01b0316811480610f0557506000546001600160a01b038281169116145b610f215760405162461bcd60e51b81526004016109ce90612be7565b825180610f605760405162461bcd60e51b815260206004820152600d60248201526c696e76616c696420617272617960981b60448201526064016109ce565b60005b81811015610fc6578360076000878481518110610f8257610f82612c0d565b6020908102919091018101516001600160a01b03168252810191909152604001600020805460ff191691151591909117905580610fbe81612c5b565b915050610f63565b5050505050565b610aae8383836040518060200160405280600081525061159c565b610ff0611a9a565b600089116110345760405162461bcd60e51b8152602060048201526011602482015270696e76616c6964206d6178537570706c7960781b60448201526064016109ce565b88851061107b5760405162461bcd60e51b81526020600482015260156024820152741a5b9d985b1a59081b585e135a5b9d105b5bdd5b9d605a1b60448201526064016109ce565b600088116110c35760405162461bcd60e51b8152602060048201526015602482015274696e76616c6964206d696e74696e6720707269636560581b60448201526064016109ce565b42871161111d5760405162461bcd60e51b815260206004820152602260248201527f737461727454696d657374616d70206265666f72652063757272656e742074696044820152616d6560f01b60648201526084016109ce565b8686116111775760405162461bcd60e51b815260206004820152602260248201527f656e6454696d657374616d70206265666f726520737461727454696d6573746160448201526106d760f41b60648201526084016109ce565b6001600160a01b0384166111c45760405162461bcd60e51b81526020600482015260146024820152737a65726f2063726561746f72206164647265737360601b60448201526064016109ce565b600e859055600d899055600f88905560108890556011869055601287905560036111ee8482612cba565b5060046111fb8382612cba565b5060056112088282612cba565b506013805462ff0000191662010000179055600c80546001600160a01b0386166001600160a01b031990911617905560016007600061124f6000546001600160a01b031690565b6001600160a01b03908116825260208083019390935260409182016000908120805495151560ff19968716179055600c5490911681526007909252902080549091166001179055505050505050505050565b60006112ac82611af4565b5192915050565b60006001600160a01b0382166112dc576040516323d3ad8160e21b815260040160405180910390fd5b506001600160a01b03166000908152600860205260409020546001600160401b031690565b611309611a9a565b6113136000611c0f565b565b600c5433906001600160a01b031681148061133d57506000546001600160a01b038281169116145b6113595760405162461bcd60e51b81526004016109ce90612be7565b5060138054911515620100000262ff000019909216919091179055565b600b818154811061138657600080fd5b6000918252602090912001546001600160a01b0381169150600160a01b900461ffff1682565b600c5433906001600160a01b03168114806113d457506000546001600160a01b038281169116145b6113f05760405162461bcd60e51b81526004016109ce90612be7565b428210156114365760405162461bcd60e51b81526020600482015260136024820152726265666f72652063757272656e742074696d6560681b60448201526064016109ce565b50601255565b6114463382611c5f565b50565b6060600480546108c390612bad565b611460611a9a565b61146a8282611c5f565b5050565b6013546000906301000000900460ff16156114895750600090565b601254429081101561149d57600091505090565b6011548111156114af57600091505090565b600191505090565b600c5433906001600160a01b03168114806114df57506000546001600160a01b038281169116145b6114fb5760405162461bcd60e51b81526004016109ce90612be7565b6005610aae8382612cba565b336001600160a01b038316036115305760405163b06307db60e01b815260040160405180910390fd5b336000818152600a602090815260408083206001600160a01b03871680855290835292819020805460ff191686151590811790915590519081529192917f17307eab39ab6107e8899845ad3d59bd9653f200f220920489ca2b5937696c31910160405180910390a35050565b6115a7848484611889565b6115b384848484611f65565b6115d0576040516368d2bf6b60e11b815260040160405180910390fd5b50505050565b600c5433906001600160a01b03168114806115fe57506000546001600160a01b038281169116145b61161a5760405162461bcd60e51b81526004016109ce90612be7565b816116286002546001540390565b11156116765760405162461bcd60e51b815260206004820152601e60248201527f6265666f72652063757272656e7420737570706c69656420616d6f756e74000060448201526064016109ce565b50600d55565b606061168782611801565b6116a457604051630a14c4b560e41b815260040160405180910390fd5b60006116ae612068565b905080516000036116ce57604051806020016040528060008152506116f9565b806116d884612077565b6040516020016116e9929190612d79565b6040516020818303038152906040525b9392505050565b600c5433906001600160a01b031681148061172857506000546001600160a01b038281169116145b6117445760405162461bcd60e51b81526004016109ce90612be7565b506013805461ffff191661ffff92909216919091179055565b6001600160a01b039182166000908152600a6020908152604080832093909416825291909152205460ff1690565b611793611a9a565b6001600160a01b0381166117f85760405162461bcd60e51b815260206004820152602660248201527f4f776e61626c653a206e6577206f776e657220697320746865207a65726f206160448201526564647265737360d01b60648201526084016109ce565b61144681611c0f565b6000600154821080156108ae575050600090815260066020526040902054600160e01b900460ff161590565b60008281526009602052604080822080546001600160a01b0319166001600160a01b0387811691821790925591518593918516917f8c5be1e5ebec7d5bd14f71427d1e84f3dd0314c0f7b2291e5b200ac8c7c3b92591a4505050565b600061189482611af4565b80519091506000906001600160a01b0316336001600160a01b031614806118c2575081516118c2903361175d565b806118dd5750336118d284610946565b6001600160a01b0316145b9050806118fd57604051632ce44b5f60e11b815260040160405180910390fd5b846001600160a01b031682600001516001600160a01b0316146119325760405162a1148160e81b815260040160405180910390fd5b6001600160a01b03841661195957604051633a954ecd60e21b815260040160405180910390fd5b611969600084846000015161182d565b6001600160a01b038581166000908152600860209081526040808320805467ffffffffffffffff198082166001600160401b0392831660001901831617909255898616808652838620805493841693831660019081018416949094179055898652600690945282852080546001600160e01b031916909417600160a01b429092169190910217909255908601808352912054909116611a5357600154811015611a5357825160008281526006602090815260409091208054918601516001600160401b0316600160a01b026001600160e01b03199092166001600160a01b03909316929092171790555b5082846001600160a01b0316866001600160a01b03167fddf252ad1be2c89b69c2b068fc378daa952ba7f163c4a11628f55a4df523b3ef60405160405180910390a4610fc6565b6000546001600160a01b031633146113135760405162461bcd60e51b815260206004820181905260248201527f4f776e61626c653a2063616c6c6572206973206e6f7420746865206f776e657260448201526064016109ce565b60408051606081018252600080825260208201819052918101919091526001548290811015611bf657600081815260066020908152604091829020825160608101845290546001600160a01b0381168252600160a01b81046001600160401b031692820192909252600160e01b90910460ff16151591810182905290611bf45780516001600160a01b031615611b8b579392505050565b5060001901600081815260066020908152604091829020825160608101845290546001600160a01b038116808352600160a01b82046001600160401b031693830193909352600160e01b900460ff1615159281019290925215611bef579392505050565b611b8b565b505b604051636f96cda160e11b815260040160405180910390fd5b600080546001600160a01b038381166001600160a01b0319831681178455604051919092169283917f8be0079c531659141344cd1fd0a4f28419497f9722a3daafe3b4186f6b6457e09190a35050565b3481611c9d5760405162461bcd60e51b815260206004820152600d60248201526c7a65726f207175616e7469747960981b60448201526064016109ce565b600e54821115611cef5760405162461bcd60e51b815260206004820152601860248201527f6578636565647320746f206d61784d696e74416d6f756e74000000000000000060448201526064016109ce565b6001600160a01b038316611d3e5760405162461bcd60e51b81526020600482015260166024820152757a65726f20726563697069656e74206164647265737360501b60448201526064016109ce565b6011544210611d835760405162461bcd60e51b81526020600482015260116024820152706f766572206d696e74696e672074696d6560781b60448201526064016109ce565b600d5482611d946002546001540390565b611d9e9190612da8565b1115611ddd5760405162461bcd60e51b815260206004820152600e60248201526d6f766572206d6178537570706c7960901b60448201526064016109ce565b60135462010000900460ff161580611e2457506001600160a01b03831660009081526007602052604090205460ff1680611e2457506000546001600160a01b038481169116145b611e615760405162461bcd60e51b815260206004820152600e60248201526d1bdb9b1e481dda1a5d195b1a5cdd60921b60448201526064016109ce565b600082600f54611e719190612dbb565b60135490915062010000900460ff16611ecf57601254421015611eca5760405162461bcd60e51b81526020600482015260116024820152706265666f72652073746172742074696d6560781b60448201526064016109ce565b611ee0565b82601054611edd9190612dbb565b90505b600c546001600160a01b0385811691161480611efc5750808210155b611f3a5760405162461bcd60e51b815260206004820152600f60248201526e1b9bdd08195b9bdd59da0818dbdcdd608a1b60448201526064016109ce565b6000611f468284612dd2565b9050611f528582612109565b611f5b826121af565b610fc685856122de565b60006001600160a01b0384163b1561205c57604051630a85bd0160e11b81526001600160a01b0385169063150b7a0290611fa9903390899088908890600401612de5565b6020604051808303816000875af1925050508015611fe4575060408051601f3d908101601f19168201909252611fe191810190612e22565b60015b612042573d808015612012576040519150601f19603f3d011682016040523d82523d6000602084013e612017565b606091505b50805160000361203a576040516368d2bf6b60e11b815260040160405180910390fd5b805181602001fd5b6001600160e01b031916630a85bd0160e11b149050612060565b5060015b949350505050565b6060600580546108c390612bad565b60606000612084836122f8565b60010190506000816001600160401b038111156120a3576120a3612676565b6040519080825280601f01601f1916602001820160405280156120cd576020820181803683370190505b5090508181016020015b600019016f181899199a1a9b1b9c1cb0b131b232b360811b600a86061a8153600a85049450846120d757509392505050565b80600003612115575050565b6000826001600160a01b03168260405160006040518083038185875af1925050503d8060008114612162576040519150601f19603f3d011682016040523d82523d6000602084013e612167565b606091505b5050905080610aae5760405162461bcd60e51b81526020600482015260146024820152732330b4b632b2103a379039b2b7321022ba3432b960611b60448201526064016109ce565b600b546013546000906103e8906121ca9061ffff1685612dbb565b6121d49190612e3f565b90506121e08184612dd2565b92506121fd6121f76000546001600160a01b031690565b82612109565b8160000361221b57600c54610aae906001600160a01b031684612109565b60005b828110156115d0576000600b828154811061223b5761223b612c0d565b6000918252602091829020604080518082019091529101546001600160a01b0381168252600160a01b900461ffff1691810191909152905061227e600185612dd2565b82036122955780516122909047612109565b6122cb565b60208101516000906103e8906122af9061ffff1688612dbb565b6122b99190612e3f565b90506122c9826000015182612109565b505b50806122d681612c5b565b91505061221e565b61146a8282604051806020016040528060008152506123d0565b60008072184f03e93ff9f4daa797ed6e38ed64bf6a1f0160401b83106123375772184f03e93ff9f4daa797ed6e38ed64bf6a1f0160401b830492506040015b6d04ee2d6d415b85acef81000000008310612363576d04ee2d6d415b85acef8100000000830492506020015b662386f26fc10000831061238157662386f26fc10000830492506010015b6305f5e1008310612399576305f5e100830492506008015b61271083106123ad57612710830492506004015b606483106123bf576064830492506002015b600a83106108ae5760010192915050565b610aae838383600180546001600160a01b03851661240057604051622e076360e81b815260040160405180910390fd5b836000036124215760405163b562e8dd60e01b815260040160405180910390fd5b6001600160a01b038516600081815260086020908152604080832080546fffffffffffffffffffffffffffffffff1981166001600160401b038083168c0181169182176801000000000000000067ffffffffffffffff1990941690921783900481168c018116909202179091558584526006909252822080546001600160e01b031916909317600160a01b42909216919091021790915581905b8581101561253c5760405182906001600160a01b038916906000907fddf252ad1be2c89b69c2b068fc378daa952ba7f163c4a11628f55a4df523b3ef908290a483801561251257506125106000888488611f65565b155b15612530576040516368d2bf6b60e11b815260040160405180910390fd5b600191820191016124bb565b50600155610fc6565b508054600082559060005260206000209081019061144691905b8082111561257d5780546001600160b01b031916815560010161255f565b5090565b6001600160e01b03198116811461144657600080fd5b6000602082840312156125a957600080fd5b81356116f981612581565b60005b838110156125cf5781810151838201526020016125b7565b50506000910152565b600081518084526125f08160208601602086016125b4565b601f01601f19169290920160200192915050565b6020815260006116f960208301846125d8565b60006020828403121561262957600080fd5b5035919050565b80356001600160a01b038116811461264757600080fd5b919050565b6000806040838503121561265f57600080fd5b61266883612630565b946020939093013593505050565b634e487b7160e01b600052604160045260246000fd5b604051601f8201601f191681016001600160401b03811182821017156126b4576126b4612676565b604052919050565b60006001600160401b038211156126d5576126d5612676565b5060051b60200190565b600082601f8301126126f057600080fd5b81356020612705612700836126bc565b61268c565b82815260059290921b8401810191818101908684111561272457600080fd5b8286015b848110156127465761273981612630565b8352918301918301612728565b509695505050505050565b803561ffff8116811461264757600080fd5b6000806040838503121561277657600080fd5b82356001600160401b038082111561278d57600080fd5b612799868387016126df565b93506020915081850135818111156127b057600080fd5b85019050601f810186136127c357600080fd5b80356127d1612700826126bc565b81815260059190911b820183019083810190888311156127f057600080fd5b928401925b828410156128155761280684612751565b825292840192908401906127f5565b80955050505050509250929050565b60008060006060848603121561283957600080fd5b61284284612630565b925061285060208501612630565b9150604084013590509250925092565b602080825282518282018190526000919060409081850190868401855b828110156128af57815180516001600160a01b0316855286015161ffff1686850152928401929085019060010161287d565b5091979650505050505050565b8035801515811461264757600080fd5b600080604083850312156128df57600080fd5b82356001600160401b038111156128f557600080fd5b612901858286016126df565b925050612910602084016128bc565b90509250929050565b60006001600160401b0383111561293257612932612676565b612945601f8401601f191660200161268c565b905082815283838301111561295957600080fd5b828260208301376000602084830101529392505050565b600082601f83011261298157600080fd5b6116f983833560208501612919565b60008060008060008060008060006101208a8c0312156129af57600080fd5b8935985060208a0135975060408a0135965060608a0135955060808a013594506129db60a08b01612630565b935060c08a01356001600160401b03808211156129f757600080fd5b612a038d838e01612970565b945060e08c0135915080821115612a1957600080fd5b612a258d838e01612970565b93506101008c0135915080821115612a3c57600080fd5b50612a498c828d01612970565b9150509295985092959850929598565b600060208284031215612a6b57600080fd5b6116f982612630565b600060208284031215612a8657600080fd5b6116f9826128bc565b600060208284031215612aa157600080fd5b81356001600160401b03811115612ab757600080fd5b61206084828501612970565b60008060408385031215612ad657600080fd5b612adf83612630565b9150612910602084016128bc565b60008060008060808587031215612b0357600080fd5b612b0c85612630565b9350612b1a60208601612630565b92506040850135915060608501356001600160401b03811115612b3c57600080fd5b8501601f81018713612b4d57600080fd5b612b5c87823560208401612919565b91505092959194509250565b600060208284031215612b7a57600080fd5b6116f982612751565b60008060408385031215612b9657600080fd5b612b9f83612630565b915061291060208401612630565b600181811c90821680612bc157607f821691505b602082108103612be157634e487b7160e01b600052602260045260246000fd5b50919050565b6020808252600c908201526b37b7363c9031b932b0ba37b960a11b604082015260600190565b634e487b7160e01b600052603260045260246000fd5b634e487b7160e01b600052601160045260246000fd5b61ffff818116838216019080821115612c5457612c54612c23565b5092915050565b600060018201612c6d57612c6d612c23565b5060010190565b601f821115610aae57600081815260208120601f850160051c81016020861015612c9b5750805b601f850160051c820191505b81811015610d1757828155600101612ca7565b81516001600160401b03811115612cd357612cd3612676565b612ce781612ce18454612bad565b84612c74565b602080601f831160018114612d1c5760008415612d045750858301515b600019600386901b1c1916600185901b178555610d17565b600085815260208120601f198616915b82811015612d4b57888601518255948401946001909101908401612d2c565b5085821015612d695787850151600019600388901b60f8161c191681555b5050505050600190811b01905550565b60008351612d8b8184602088016125b4565b835190830190612d9f8183602088016125b4565b01949350505050565b808201808211156108ae576108ae612c23565b80820281158282048414176108ae576108ae612c23565b818103818111156108ae576108ae612c23565b6001600160a01b0385811682528416602082015260408101839052608060608201819052600090612e18908301846125d8565b9695505050505050565b600060208284031215612e3457600080fd5b81516116f981612581565b600082612e5c57634e487b7160e01b600052601260045260246000fd5b50049056fea26469706673582212206b9de6cc3d18ede0c2f40d10abba01e11642d96899293c610c5a53318c9eff2d64736f6c63430008110033",
  "linkReferences": {},
  "deployedLinkReferences": {}
}