{
  "_format": "hh-sol-artifact-1",
  "contractName": "MockERC721",
  "sourceName": "contracts/test/MockERC721.sol",
  "abi": [
    {
      "inputs": [
        {
          "internalType": "string",
          "name": "name_",
          "type": "string"
        },
        {
          "internalType": "string",
          "name": "symbol_",
          "type": "string"
        }
      ],
      "stateMutability": "nonpayable",
      "type": "constructor"
    },
    {
      "anonymous": false,
      "inputs": [
        {
          "indexed": true,
          "internalType": "address",
          "name": "owner",
          "type": "address"
        },
        {
          "indexed": true,
          "internalType": "address",
          "name": "approved",
          "type": "address"
        },
        {
          "indexed": true,
          "internalType": "uint256",
          "name": "tokenId",
          "type": "uint256"
        }
      ],
      "name": "Approval",
      "type": "event"
    },
    {
      "anonymous": false,
      "inputs": [
        {
          "indexed": true,
          "internalType": "address",
          "name": "owner",
          "type": "address"
        },
        {
          "indexed": true,
          "internalType": "address",
          "name": "operator",
          "type": "address"
        },
        {
          "indexed": false,
          "internalType": "bool",
          "name": "approved",
          "type": "bool"
        }
      ],
      "name": "ApprovalForAll",
      "type": "event"
    },
    {
      "anonymous": false,
      "inputs": [
        {
          "indexed": true,
          "internalType": "address",
          "name": "previousOwner",
          "type": "address"
        },
        {
          "indexed": true,
          "internalType": "address",
          "name": "newOwner",
          "type": "address"
        }
      ],
      "name": "OwnershipTransferred",
      "type": "event"
    },
    {
      "anonymous": false,
      "inputs": [
        {
          "indexed": true,
          "internalType": "address",
          "name": "from",
          "type": "address"
        },
        {
          "indexed": true,
          "internalType": "address",
          "name": "to",
          "type": "address"
        },
        {
          "indexed": true,
          "internalType": "uint256",
          "name": "tokenId",
          "type": "uint256"
        }
      ],
      "name": "Transfer",
      "type": "event"
    },
    {
      "inputs": [
        {
          "internalType": "address",
          "name": "to",
          "type": "address"
        },
        {
          "internalType": "uint256",
          "name": "tokenId",
          "type": "uint256"
        }
      ],
      "name": "approve",
      "outputs": [],
      "stateMutability": "nonpayable",
      "type": "function"
    },
    {
      "inputs": [
        {
          "internalType": "address",
          "name": "owner",
          "type": "address"
        }
      ],
      "name": "balanceOf",
      "outputs": [
        {
          "internalType": "uint256",
          "name": "",
          "type": "uint256"
        }
      ],
      "stateMutability": "view",
      "type": "function"
    },
    {
      "inputs": [
        {
          "internalType": "uint256",
          "name": "tokenId",
          "type": "uint256"
        }
      ],
      "name": "getApproved",
      "outputs": [
        {
          "internalType": "address",
          "name": "",
          "type": "address"
        }
      ],
      "stateMutability": "view",
      "type": "function"
    },
    {
      "inputs": [
        {
          "internalType": "address",
          "name": "owner",
          "type": "address"
        },
        {
          "internalType": "address",
          "name": "operator",
          "type": "address"
        }
      ],
      "name": "isApprovedForAll",
      "outputs": [
        {
          "internalType": "bool",
          "name": "",
          "type": "bool"
        }
      ],
      "stateMutability": "view",
      "type": "function"
    },
    {
      "inputs": [
        {
          "internalType": "uint256",
          "name": "amount_",
          "type": "uint256"
        }
      ],
      "name": "mintNFT",
      "outputs": [],
      "stateMutability": "nonpayable",
      "type": "function"
    },
    {
      "inputs": [],
      "name": "name",
      "outputs": [
        {
          "internalType": "string",
          "name": "",
          "type": "string"
        }
      ],
      "stateMutability": "view",
      "type": "function"
    },
    {
      "inputs": [],
      "name": "owner",
      "outputs": [
        {
          "internalType": "address",
          "name": "",
          "type": "address"
        }
      ],
      "stateMutability": "view",
      "type": "function"
    },
    {
      "inputs": [
        {
          "internalType": "uint256",
          "name": "tokenId",
          "type": "uint256"
        }
      ],
      "name": "ownerOf",
      "outputs": [
        {
          "internalType": "address",
          "name": "",
          "type": "address"
        }
      ],
      "stateMutability": "view",
      "type": "function"
    },
    {
      "inputs": [],
      "name": "renounceOwnership",
      "outputs": [],
      "stateMutability": "nonpayable",
      "type": "function"
    },
    {
      "inputs": [
        {
          "internalType": "address",
          "name": "from",
          "type": "address"
        },
        {
          "internalType": "address",
          "name": "to",
          "type": "address"
        },
        {
          "internalType": "uint256",
          "name": "tokenId",
          "type": "uint256"
        }
      ],
      "name": "safeTransferFrom",
      "outputs": [],
      "stateMutability": "nonpayable",
      "type": "function"
    },
    {
      "inputs": [
        {
          "internalType": "address",
          "name": "from",
          "type": "address"
        },
        {
          "internalType": "address",
          "name": "to",
          "type": "address"
        },
        {
          "internalType": "uint256",
          "name": "tokenId",
          "type": "uint256"
        },
        {
          "internalType": "bytes",
          "name": "data",
          "type": "bytes"
        }
      ],
      "name": "safeTransferFrom",
      "outputs": [],
      "stateMutability": "nonpayable",
      "type": "function"
    },
    {
      "inputs": [
        {
          "internalType": "address",
          "name": "operator",
          "type": "address"
        },
        {
          "internalType": "bool",
          "name": "approved",
          "type": "bool"
        }
      ],
      "name": "setApprovalForAll",
      "outputs": [],
      "stateMutability": "nonpayable",
      "type": "function"
    },
    {
      "inputs": [
        {
          "internalType": "bytes4",
          "name": "interfaceId",
          "type": "bytes4"
        }
      ],
      "name": "supportsInterface",
      "outputs": [
        {
          "internalType": "bool",
          "name": "",
          "type": "bool"
        }
      ],
      "stateMutability": "view",
      "type": "function"
    },
    {
      "inputs": [],
      "name": "symbol",
      "outputs": [
        {
          "internalType": "string",
          "name": "",
          "type": "string"
        }
      ],
      "stateMutability": "view",
      "type": "function"
    },
    {
      "inputs": [
        {
          "internalType": "uint256",
          "name": "tokenId",
          "type": "uint256"
        }
      ],
      "name": "tokenURI",
      "outputs": [
        {
          "internalType": "string",
          "name": "",
          "type": "string"
        }
      ],
      "stateMutability": "view",
      "type": "function"
    },
    {
      "inputs": [
        {
          "internalType": "address",
          "name": "from",
          "type": "address"
        },
        {
          "internalType": "address",
          "name": "to",
          "type": "address"
        },
        {
          "internalType": "uint256",
          "name": "tokenId",
          "type": "uint256"
        }
      ],
      "name": "transferFrom",
      "outputs": [],
      "stateMutability": "nonpayable",
      "type": "function"
    },
    {
      "inputs": [
        {
          "internalType": "address",
          "name": "newOwner",
          "type": "address"
        }
      ],
      "name": "transferOwnership",
      "outputs": [],
      "stateMutability": "nonpayable",
      "type": "function"
    }
  ],
  "bytecode": "0x60806040523480156200001157600080fd5b506040516200184838038062001848833981016040819052620000349162000193565b818160006200004483826200028c565b5060016200005382826200028c565b505050620000706200006a6200007860201b60201c565b6200007c565b505062000358565b3390565b600680546001600160a01b038381166001600160a01b0319831681179093556040519116919082907f8be0079c531659141344cd1fd0a4f28419497f9722a3daafe3b4186f6b6457e090600090a35050565b634e487b7160e01b600052604160045260246000fd5b600082601f830112620000f657600080fd5b81516001600160401b0380821115620001135762000113620000ce565b604051601f8301601f19908116603f011681019082821181831017156200013e576200013e620000ce565b816040528381526020925086838588010111156200015b57600080fd5b600091505b838210156200017f578582018301518183018401529082019062000160565b600093810190920192909252949350505050565b60008060408385031215620001a757600080fd5b82516001600160401b0380821115620001bf57600080fd5b620001cd86838701620000e4565b93506020850151915080821115620001e457600080fd5b50620001f385828601620000e4565b9150509250929050565b600181811c908216806200021257607f821691505b6020821081036200023357634e487b7160e01b600052602260045260246000fd5b50919050565b601f8211156200028757600081815260208120601f850160051c81016020861015620002625750805b601f850160051c820191505b8181101562000283578281556001016200026e565b5050505b505050565b81516001600160401b03811115620002a857620002a8620000ce565b620002c081620002b98454620001fd565b8462000239565b602080601f831160018114620002f85760008415620002df5750858301515b600019600386901b1c1916600185901b17855562000283565b600085815260208120601f198616915b82811015620003295788860151825594840194600190910190840162000308565b5085821015620003485787850151600019600388901b60f8161c191681555b5050505050600190811b01905550565b6114e080620003686000396000f3fe608060405234801561001057600080fd5b506004361061010b5760003560e01c8063715018a6116100a2578063a22cb46511610071578063a22cb4651461021b578063b88d4fde1461022e578063c87b56dd14610241578063e985e9c514610254578063f2fde38b1461029057600080fd5b8063715018a6146101e75780638da5cb5b146101ef578063926427441461020057806395d89b411461021357600080fd5b806323b872dd116100de57806323b872dd1461018d57806342842e0e146101a05780636352211e146101b357806370a08231146101c657600080fd5b806301ffc9a71461011057806306fdde0314610138578063081812fc1461014d578063095ea7b314610178575b600080fd5b61012361011e366004611045565b6102a3565b60405190151581526020015b60405180910390f35b6101406102f5565b60405161012f91906110b2565b61016061015b3660046110c5565b610387565b6040516001600160a01b03909116815260200161012f565b61018b6101863660046110fa565b6103ae565b005b61018b61019b366004611124565b6104c8565b61018b6101ae366004611124565b6104f9565b6101606101c13660046110c5565b610514565b6101d96101d4366004611160565b610574565b60405190815260200161012f565b61018b6105fa565b6006546001600160a01b0316610160565b61018b61020e3660046110c5565b61060e565b61014061064f565b61018b61022936600461117b565b61065e565b61018b61023c3660046111cd565b610669565b61014061024f3660046110c5565b6106a1565b6101236102623660046112a9565b6001600160a01b03918216600090815260056020908152604080832093909416825291909152205460ff1690565b61018b61029e366004611160565b610715565b60006001600160e01b031982166380ac58cd60e01b14806102d457506001600160e01b03198216635b5e139f60e01b145b806102ef57506301ffc9a760e01b6001600160e01b03198316145b92915050565b606060008054610304906112dc565b80601f0160208091040260200160405190810160405280929190818152602001828054610330906112dc565b801561037d5780601f106103525761010080835404028352916020019161037d565b820191906000526020600020905b81548152906001019060200180831161036057829003601f168201915b5050505050905090565b60006103928261078e565b506000908152600460205260409020546001600160a01b031690565b60006103b982610514565b9050806001600160a01b0316836001600160a01b03160361042b5760405162461bcd60e51b815260206004820152602160248201527f4552433732313a20617070726f76616c20746f2063757272656e74206f776e656044820152603960f91b60648201526084015b60405180910390fd5b336001600160a01b038216148061044757506104478133610262565b6104b95760405162461bcd60e51b815260206004820152603d60248201527f4552433732313a20617070726f76652063616c6c6572206973206e6f7420746f60448201527f6b656e206f776e6572206f7220617070726f76656420666f7220616c6c0000006064820152608401610422565b6104c383836107ed565b505050565b6104d2338261085b565b6104ee5760405162461bcd60e51b815260040161042290611316565b6104c38383836108da565b6104c383838360405180602001604052806000815250610669565b6000818152600260205260408120546001600160a01b0316806102ef5760405162461bcd60e51b8152602060048201526018602482015277115490cdcc8c4e881a5b9d985b1a59081d1bdad95b88125160421b6044820152606401610422565b60006001600160a01b0382166105de5760405162461bcd60e51b815260206004820152602960248201527f4552433732313a2061646472657373207a65726f206973206e6f7420612076616044820152683634b21037bbb732b960b91b6064820152608401610422565b506001600160a01b031660009081526003602052604090205490565b610602610a3e565b61060c6000610a98565b565b60005b8181101561064b5761062b3361062660075490565b610aea565b610639600780546001019055565b8061064381611363565b915050610611565b5050565b606060018054610304906112dc565b61064b338383610b04565b610673338361085b565b61068f5760405162461bcd60e51b815260040161042290611316565b61069b84848484610bd2565b50505050565b60606106ac8261078e565b60006106c360408051602081019091526000815290565b905060008151116106e3576040518060200160405280600081525061070e565b806106ed84610c05565b6040516020016106fe92919061138a565b6040516020818303038152906040525b9392505050565b61071d610a3e565b6001600160a01b0381166107825760405162461bcd60e51b815260206004820152602660248201527f4f776e61626c653a206e6577206f776e657220697320746865207a65726f206160448201526564647265737360d01b6064820152608401610422565b61078b81610a98565b50565b6000818152600260205260409020546001600160a01b031661078b5760405162461bcd60e51b8152602060048201526018602482015277115490cdcc8c4e881a5b9d985b1a59081d1bdad95b88125160421b6044820152606401610422565b600081815260046020526040902080546001600160a01b0319166001600160a01b038416908117909155819061082282610514565b6001600160a01b03167f8c5be1e5ebec7d5bd14f71427d1e84f3dd0314c0f7b2291e5b200ac8c7c3b92560405160405180910390a45050565b60008061086783610514565b9050806001600160a01b0316846001600160a01b031614806108ae57506001600160a01b0380821660009081526005602090815260408083209388168352929052205460ff165b806108d25750836001600160a01b03166108c784610387565b6001600160a01b0316145b949350505050565b826001600160a01b03166108ed82610514565b6001600160a01b0316146109135760405162461bcd60e51b8152600401610422906113b9565b6001600160a01b0382166109755760405162461bcd60e51b8152602060048201526024808201527f4552433732313a207472616e7366657220746f20746865207a65726f206164646044820152637265737360e01b6064820152608401610422565b826001600160a01b031661098882610514565b6001600160a01b0316146109ae5760405162461bcd60e51b8152600401610422906113b9565b600081815260046020908152604080832080546001600160a01b03199081169091556001600160a01b0387811680865260038552838620805460001901905590871680865283862080546001019055868652600290945282852080549092168417909155905184937fddf252ad1be2c89b69c2b068fc378daa952ba7f163c4a11628f55a4df523b3ef91a4505050565b6006546001600160a01b0316331461060c5760405162461bcd60e51b815260206004820181905260248201527f4f776e61626c653a2063616c6c6572206973206e6f7420746865206f776e65726044820152606401610422565b600680546001600160a01b038381166001600160a01b0319831681179093556040519116919082907f8be0079c531659141344cd1fd0a4f28419497f9722a3daafe3b4186f6b6457e090600090a35050565b61064b828260405180602001604052806000815250610c98565b816001600160a01b0316836001600160a01b031603610b655760405162461bcd60e51b815260206004820152601960248201527f4552433732313a20617070726f766520746f2063616c6c6572000000000000006044820152606401610422565b6001600160a01b03838116600081815260056020908152604080832094871680845294825291829020805460ff191686151590811790915591519182527f17307eab39ab6107e8899845ad3d59bd9653f200f220920489ca2b5937696c31910160405180910390a3505050565b610bdd8484846108da565b610be984848484610ccb565b61069b5760405162461bcd60e51b8152600401610422906113fe565b60606000610c1283610dcc565b600101905060008167ffffffffffffffff811115610c3257610c326111b7565b6040519080825280601f01601f191660200182016040528015610c5c576020820181803683370190505b5090508181016020015b600019016f181899199a1a9b1b9c1cb0b131b232b360811b600a86061a8153600a8504945084610c6657509392505050565b610ca28383610ea4565b610caf6000848484610ccb565b6104c35760405162461bcd60e51b8152600401610422906113fe565b60006001600160a01b0384163b15610dc157604051630a85bd0160e11b81526001600160a01b0385169063150b7a0290610d0f903390899088908890600401611450565b6020604051808303816000875af1925050508015610d4a575060408051601f3d908101601f19168201909252610d479181019061148d565b60015b610da7573d808015610d78576040519150601f19603f3d011682016040523d82523d6000602084013e610d7d565b606091505b508051600003610d9f5760405162461bcd60e51b8152600401610422906113fe565b805181602001fd5b6001600160e01b031916630a85bd0160e11b1490506108d2565b506001949350505050565b60008072184f03e93ff9f4daa797ed6e38ed64bf6a1f0160401b8310610e0b5772184f03e93ff9f4daa797ed6e38ed64bf6a1f0160401b830492506040015b6d04ee2d6d415b85acef81000000008310610e37576d04ee2d6d415b85acef8100000000830492506020015b662386f26fc100008310610e5557662386f26fc10000830492506010015b6305f5e1008310610e6d576305f5e100830492506008015b6127108310610e8157612710830492506004015b60648310610e93576064830492506002015b600a83106102ef5760010192915050565b6001600160a01b038216610efa5760405162461bcd60e51b815260206004820181905260248201527f4552433732313a206d696e7420746f20746865207a65726f20616464726573736044820152606401610422565b6000818152600260205260409020546001600160a01b031615610f5f5760405162461bcd60e51b815260206004820152601c60248201527f4552433732313a20746f6b656e20616c7265616479206d696e746564000000006044820152606401610422565b6000818152600260205260409020546001600160a01b031615610fc45760405162461bcd60e51b815260206004820152601c60248201527f4552433732313a20746f6b656e20616c7265616479206d696e746564000000006044820152606401610422565b6001600160a01b038216600081815260036020908152604080832080546001019055848352600290915280822080546001600160a01b0319168417905551839291907fddf252ad1be2c89b69c2b068fc378daa952ba7f163c4a11628f55a4df523b3ef908290a45050565b6001600160e01b03198116811461078b57600080fd5b60006020828403121561105757600080fd5b813561070e8161102f565b60005b8381101561107d578181015183820152602001611065565b50506000910152565b6000815180845261109e816020860160208601611062565b601f01601f19169290920160200192915050565b60208152600061070e6020830184611086565b6000602082840312156110d757600080fd5b5035919050565b80356001600160a01b03811681146110f557600080fd5b919050565b6000806040838503121561110d57600080fd5b611116836110de565b946020939093013593505050565b60008060006060848603121561113957600080fd5b611142846110de565b9250611150602085016110de565b9150604084013590509250925092565b60006020828403121561117257600080fd5b61070e826110de565b6000806040838503121561118e57600080fd5b611197836110de565b9150602083013580151581146111ac57600080fd5b809150509250929050565b634e487b7160e01b600052604160045260246000fd5b600080600080608085870312156111e357600080fd5b6111ec856110de565b93506111fa602086016110de565b925060408501359150606085013567ffffffffffffffff8082111561121e57600080fd5b818701915087601f83011261123257600080fd5b813581811115611244576112446111b7565b604051601f8201601f19908116603f0116810190838211818310171561126c5761126c6111b7565b816040528281528a602084870101111561128557600080fd5b82602086016020830137600060208483010152809550505050505092959194509250565b600080604083850312156112bc57600080fd5b6112c5836110de565b91506112d3602084016110de565b90509250929050565b600181811c908216806112f057607f821691505b60208210810361131057634e487b7160e01b600052602260045260246000fd5b50919050565b6020808252602d908201527f4552433732313a2063616c6c6572206973206e6f7420746f6b656e206f776e6560408201526c1c881bdc88185c1c1c9bdd9959609a1b606082015260800190565b60006001820161138357634e487b7160e01b600052601160045260246000fd5b5060010190565b6000835161139c818460208801611062565b8351908301906113b0818360208801611062565b01949350505050565b60208082526025908201527f4552433732313a207472616e736665722066726f6d20696e636f72726563742060408201526437bbb732b960d91b606082015260800190565b60208082526032908201527f4552433732313a207472616e7366657220746f206e6f6e20455243373231526560408201527131b2b4bb32b91034b6b83632b6b2b73a32b960711b606082015260800190565b6001600160a01b038581168252841660208201526040810183905260806060820181905260009061148390830184611086565b9695505050505050565b60006020828403121561149f57600080fd5b815161070e8161102f56fea2646970667358221220258cf0205146ff633094f7af95823f131db959b971aa6dbcad9889ebd221181c64736f6c63430008110033",
  "linkReferences": {},
  "deployedLinkReferences": {}
}