{
  "_format": "hh-sol-artifact-1",
  "contractName": "Marketplace",
  "sourceName": "contracts/Marketplace.sol",
  "abi": [
    {
      "inputs": [],
      "stateMutability": "nonpayable",
      "type": "constructor"
    },
    {
      "anonymous": false,
      "inputs": [
        {
          "indexed": false,
          "internalType": "address[]",
          "name": "tokens",
          "type": "address[]"
        },
        {
          "indexed": false,
          "internalType": "bool",
          "name": "isAdd",
          "type": "bool"
        }
      ],
      "name": "AllowedTokenSet",
      "type": "event"
    },
    {
      "anonymous": false,
      "inputs": [
        {
          "indexed": false,
          "internalType": "uint256",
          "name": "auctionId",
          "type": "uint256"
        }
      ],
      "name": "AuctionClosed",
      "type": "event"
    },
    {
      "anonymous": false,
      "inputs": [
        {
          "indexed": false,
          "internalType": "uint256",
          "name": "auctionId",
          "type": "uint256"
        },
        {
          "indexed": false,
          "internalType": "address",
          "name": "auctionMaker",
          "type": "address"
        },
        {
          "indexed": false,
          "internalType": "address",
          "name": "auctionWinner",
          "type": "address"
        },
        {
          "indexed": false,
          "internalType": "address",
          "name": "collection",
          "type": "address"
        },
        {
          "indexed": false,
          "internalType": "uint256[]",
          "name": "tokenIds",
          "type": "uint256[]"
        },
        {
          "indexed": false,
          "internalType": "address",
          "name": "paymentToken",
          "type": "address"
        },
        {
          "indexed": false,
          "internalType": "uint256",
          "name": "winPrice",
          "type": "uint256"
        }
      ],
      "name": "AuctionFinished",
      "type": "event"
    },
    {
      "anonymous": false,
      "inputs": [
        {
          "indexed": false,
          "internalType": "address",
          "name": "bidder",
          "type": "address"
        },
        {
          "indexed": false,
          "internalType": "uint256",
          "name": "auctionId",
          "type": "uint256"
        },
        {
          "indexed": false,
          "internalType": "uint256",
          "name": "bidPrice",
          "type": "uint256"
        }
      ],
      "name": "BidPlaced",
      "type": "event"
    },
    {
      "anonymous": false,
      "inputs": [
        {
          "indexed": false,
          "internalType": "address[]",
          "name": "users",
          "type": "address[]"
        },
        {
          "indexed": false,
          "internalType": "bool",
          "name": "isAdd",
          "type": "bool"
        }
      ],
      "name": "BlacklistedUserSet",
      "type": "event"
    },
    {
      "anonymous": false,
      "inputs": [
        {
          "indexed": false,
          "internalType": "address[]",
          "name": "collections",
          "type": "address[]"
        },
        {
          "indexed": false,
          "internalType": "uint256[]",
          "name": "tokenIds",
          "type": "uint256[]"
        },
        {
          "indexed": false,
          "internalType": "bool",
          "name": "isAdd",
          "type": "bool"
        }
      ],
      "name": "BlockedTokenIdsSet",
      "type": "event"
    },
    {
      "anonymous": false,
      "inputs": [
        {
          "indexed": false,
          "internalType": "address",
          "name": "auctionMaker",
          "type": "address"
        },
        {
          "indexed": false,
          "internalType": "address",
          "name": "tokenAddress",
          "type": "address"
        },
        {
          "indexed": false,
          "internalType": "address",
          "name": "paymentToken",
          "type": "address"
        },
        {
          "indexed": false,
          "internalType": "uint256",
          "name": "auctionId",
          "type": "uint256"
        },
        {
          "indexed": false,
          "internalType": "uint256",
          "name": "tokenId",
          "type": "uint256"
        },
        {
          "indexed": false,
          "internalType": "uint256",
          "name": "quantity",
          "type": "uint256"
        },
        {
          "indexed": false,
          "internalType": "uint256",
          "name": "startPrice",
          "type": "uint256"
        },
        {
          "indexed": false,
          "internalType": "uint256",
          "name": "endTimestamp",
          "type": "uint256"
        },
        {
          "indexed": false,
          "internalType": "bool",
          "name": "isTimeAuction",
          "type": "bool"
        }
      ],
      "name": "ERC1155ForAuctionListed",
      "type": "event"
    },
    {
      "anonymous": false,
      "inputs": [
        {
          "indexed": false,
          "internalType": "address",
          "name": "seller",
          "type": "address"
        },
        {
          "indexed": false,
          "internalType": "address",
          "name": "tokenAddress",
          "type": "address"
        },
        {
          "indexed": false,
          "internalType": "address",
          "name": "paymentToken",
          "type": "address"
        },
        {
          "indexed": false,
          "internalType": "uint256",
          "name": "tokenId",
          "type": "uint256"
        },
        {
          "indexed": false,
          "internalType": "uint256",
          "name": "quantity",
          "type": "uint256"
        },
        {
          "indexed": false,
          "internalType": "uint256",
          "name": "price",
          "type": "uint256"
        },
        {
          "indexed": false,
          "internalType": "uint256",
          "name": "saleId",
          "type": "uint256"
        }
      ],
      "name": "ERC1155ForSaleListed",
      "type": "event"
    },
    {
      "anonymous": false,
      "inputs": [
        {
          "indexed": false,
          "internalType": "address",
          "name": "creator",
          "type": "address"
        },
        {
          "indexed": false,
          "internalType": "address",
          "name": "collectionAddress",
          "type": "address"
        },
        {
          "indexed": false,
          "internalType": "uint256",
          "name": "maxSupply",
          "type": "uint256"
        },
        {
          "indexed": false,
          "internalType": "uint256",
          "name": "mintPrice",
          "type": "uint256"
        },
        {
          "indexed": false,
          "internalType": "uint256",
          "name": "endTimestamp",
          "type": "uint256"
        },
        {
          "indexed": false,
          "internalType": "string",
          "name": "name",
          "type": "string"
        },
        {
          "indexed": false,
          "internalType": "string",
          "name": "symbol",
          "type": "string"
        }
      ],
      "name": "ERC721CollectionCreated",
      "type": "event"
    },
    {
      "anonymous": false,
      "inputs": [
        {
          "indexed": false,
          "internalType": "address",
          "name": "auctionMaker",
          "type": "address"
        },
        {
          "indexed": false,
          "internalType": "address",
          "name": "tokenAddress",
          "type": "address"
        },
        {
          "indexed": false,
          "internalType": "address",
          "name": "paymentToken",
          "type": "address"
        },
        {
          "indexed": false,
          "internalType": "uint256",
          "name": "auctionId",
          "type": "uint256"
        },
        {
          "indexed": false,
          "internalType": "uint256[]",
          "name": "tokenIds",
          "type": "uint256[]"
        },
        {
          "indexed": false,
          "internalType": "uint256",
          "name": "startPrice",
          "type": "uint256"
        },
        {
          "indexed": false,
          "internalType": "uint256",
          "name": "endTimestamp",
          "type": "uint256"
        },
        {
          "indexed": false,
          "internalType": "bool",
          "name": "isTimeAuction",
          "type": "bool"
        }
      ],
      "name": "ERC721ForAuctionListed",
      "type": "event"
    },
    {
      "anonymous": false,
      "inputs": [
        {
          "indexed": false,
          "internalType": "address",
          "name": "seller",
          "type": "address"
        },
        {
          "indexed": false,
          "internalType": "address",
          "name": "tokenAddress",
          "type": "address"
        },
        {
          "indexed": false,
          "internalType": "address",
          "name": "paymentToken",
          "type": "address"
        },
        {
          "indexed": false,
          "internalType": "uint256[]",
          "name": "tokenIds",
          "type": "uint256[]"
        },
        {
          "indexed": false,
          "internalType": "uint256",
          "name": "price",
          "type": "uint256"
        },
        {
          "indexed": false,
          "internalType": "uint256",
          "name": "saleId",
          "type": "uint256"
        }
      ],
      "name": "ERC721ForSaleListed",
      "type": "event"
    },
    {
      "anonymous": false,
      "inputs": [
        {
          "indexed": false,
          "internalType": "uint8",
          "name": "version",
          "type": "uint8"
        }
      ],
      "name": "Initialized",
      "type": "event"
    },
    {
      "anonymous": false,
      "inputs": [
        {
          "indexed": false,
          "internalType": "address",
          "name": "launchPad",
          "type": "address"
        }
      ],
      "name": "LaunchPadSet",
      "type": "event"
    },
    {
      "anonymous": false,
      "inputs": [
        {
          "indexed": false,
          "internalType": "uint256",
          "name": "maxAuctionTime",
          "type": "uint256"
        }
      ],
      "name": "MaxAuctionTimeSet",
      "type": "event"
    },
    {
      "anonymous": false,
      "inputs": [
        {
          "indexed": false,
          "internalType": "address",
          "name": "buyer",
          "type": "address"
        },
        {
          "indexed": false,
          "internalType": "address",
          "name": "collection",
          "type": "address"
        },
        {
          "indexed": false,
          "internalType": "uint256[]",
          "name": "tokenIds",
          "type": "uint256[]"
        },
        {
          "indexed": false,
          "internalType": "uint256",
          "name": "quantity",
          "type": "uint256"
        },
        {
          "indexed": false,
          "internalType": "address",
          "name": "paymentToken",
          "type": "address"
        },
        {
          "indexed": false,
          "internalType": "uint256",
          "name": "price",
          "type": "uint256"
        },
        {
          "indexed": false,
          "internalType": "uint256",
          "name": "saleId",
          "type": "uint256"
        }
      ],
      "name": "NFTBought",
      "type": "event"
    },
    {
      "anonymous": false,
      "inputs": [
        {
          "indexed": false,
          "internalType": "address",
          "name": "acceptor",
          "type": "address"
        },
        {
          "indexed": false,
          "internalType": "address",
          "name": "offeror",
          "type": "address"
        },
        {
          "indexed": false,
          "internalType": "address",
          "name": "collectionAddress",
          "type": "address"
        },
        {
          "indexed": false,
          "internalType": "uint256",
          "name": "tokenId",
          "type": "uint256"
        },
        {
          "indexed": false,
          "internalType": "uint256",
          "name": "quantity",
          "type": "uint256"
        },
        {
          "indexed": false,
          "internalType": "uint256",
          "name": "offerPrice",
          "type": "uint256"
        },
        {
          "indexed": false,
          "internalType": "uint256",
          "name": "offerId",
          "type": "uint256"
        }
      ],
      "name": "OfferAccepted",
      "type": "event"
    },
    {
      "anonymous": false,
      "inputs": [
        {
          "indexed": false,
          "internalType": "address",
          "name": "collectionOwner",
          "type": "address"
        },
        {
          "indexed": false,
          "internalType": "address",
          "name": "offeror",
          "type": "address"
        },
        {
          "indexed": false,
          "internalType": "address",
          "name": "collectionAddress",
          "type": "address"
        },
        {
          "indexed": false,
          "internalType": "uint256",
          "name": "tokenId",
          "type": "uint256"
        },
        {
          "indexed": false,
          "internalType": "uint256",
          "name": "quantity",
          "type": "uint256"
        },
        {
          "indexed": false,
          "internalType": "uint256",
          "name": "offerPrice",
          "type": "uint256"
        },
        {
          "indexed": false,
          "internalType": "uint256",
          "name": "offerId",
          "type": "uint256"
        }
      ],
      "name": "OfferPlaced",
      "type": "event"
    },
    {
      "anonymous": false,
      "inputs": [
        {
          "indexed": true,
          "internalType": "address",
          "name": "previousOwner",
          "type": "address"
        },
        {
          "indexed": true,
          "internalType": "address",
          "name": "newOwner",
          "type": "address"
        }
      ],
      "name": "OwnershipTransferred",
      "type": "event"
    },
    {
      "anonymous": false,
      "inputs": [],
      "name": "Pause",
      "type": "event"
    },
    {
      "anonymous": false,
      "inputs": [
        {
          "indexed": false,
          "internalType": "address",
          "name": "account",
          "type": "address"
        }
      ],
      "name": "Paused",
      "type": "event"
    },
    {
      "anonymous": false,
      "inputs": [
        {
          "indexed": false,
          "internalType": "uint16",
          "name": "platformFee",
          "type": "uint16"
        }
      ],
      "name": "PlatformFeeSet",
      "type": "event"
    },
    {
      "anonymous": false,
      "inputs": [
        {
          "indexed": false,
          "internalType": "address",
          "name": "setter",
          "type": "address"
        },
        {
          "indexed": false,
          "internalType": "address",
          "name": "collection",
          "type": "address"
        },
        {
          "indexed": false,
          "internalType": "uint16",
          "name": "royaltyRate",
          "type": "uint16"
        }
      ],
      "name": "RoyaltySet",
      "type": "event"
    },
    {
      "anonymous": false,
      "inputs": [
        {
          "indexed": false,
          "internalType": "uint256",
          "name": "saleId",
          "type": "uint256"
        }
      ],
      "name": "SaleClosed",
      "type": "event"
    },
    {
      "anonymous": false,
      "inputs": [
        {
          "indexed": false,
          "internalType": "uint256",
          "name": "saleId",
          "type": "uint256"
        },
        {
          "indexed": false,
          "internalType": "address",
          "name": "oldPaymentToken",
          "type": "address"
        },
        {
          "indexed": false,
          "internalType": "uint256",
          "name": "oldPrice",
          "type": "uint256"
        },
        {
          "indexed": false,
          "internalType": "address",
          "name": "newPaymentToken",
          "type": "address"
        },
        {
          "indexed": false,
          "internalType": "uint256",
          "name": "newPrice",
          "type": "uint256"
        }
      ],
      "name": "SalePriceChanged",
      "type": "event"
    },
    {
      "anonymous": false,
      "inputs": [],
      "name": "Unpause",
      "type": "event"
    },
    {
      "anonymous": false,
      "inputs": [
        {
          "indexed": false,
          "internalType": "address",
          "name": "account",
          "type": "address"
        }
      ],
      "name": "Unpaused",
      "type": "event"
    },
    {
      "inputs": [],
      "name": "FIXED_POINT",
      "outputs": [
        {
          "internalType": "uint16",
          "name": "",
          "type": "uint16"
        }
      ],
      "stateMutability": "view",
      "type": "function"
    },
    {
      "inputs": [
        {
          "internalType": "uint256",
          "name": "_offerId",
          "type": "uint256"
        }
      ],
      "name": "acceptOffer",
      "outputs": [],
      "stateMutability": "nonpayable",
      "type": "function"
    },
    {
      "inputs": [
        {
          "internalType": "address",
          "name": "",
          "type": "address"
        }
      ],
      "name": "allowedTokens",
      "outputs": [
        {
          "internalType": "bool",
          "name": "",
          "type": "bool"
        }
      ],
      "stateMutability": "view",
      "type": "function"
    },
    {
      "inputs": [],
      "name": "auctionId",
      "outputs": [
        {
          "internalType": "uint256",
          "name": "",
          "type": "uint256"
        }
      ],
      "stateMutability": "view",
      "type": "function"
    },
    {
      "inputs": [
        {
          "internalType": "uint256",
          "name": "",
          "type": "uint256"
        }
      ],
      "name": "auctionInfos",
      "outputs": [
        {
          "internalType": "address",
          "name": "auctionMaker",
          "type": "address"
        },
        {
          "internalType": "address",
          "name": "collectionAddress",
          "type": "address"
        },
        {
          "internalType": "address",
          "name": "paymentToken",
          "type": "address"
        },
        {
          "internalType": "address",
          "name": "winner",
          "type": "address"
        },
        {
          "internalType": "uint256",
          "name": "quantity",
          "type": "uint256"
        },
        {
          "internalType": "uint256",
          "name": "startPrice",
          "type": "uint256"
        },
        {
          "internalType": "uint256",
          "name": "endTimestamp",
          "type": "uint256"
        },
        {
          "internalType": "uint256",
          "name": "winPrice",
          "type": "uint256"
        },
        {
          "internalType": "bool",
          "name": "isERC721",
          "type": "bool"
        },
        {
          "internalType": "bool",
          "name": "isTimeAuction",
          "type": "bool"
        }
      ],
      "stateMutability": "view",
      "type": "function"
    },
    {
      "inputs": [
        {
          "internalType": "address",
          "name": "",
          "type": "address"
        }
      ],
      "name": "blacklistedUser",
      "outputs": [
        {
          "internalType": "bool",
          "name": "",
          "type": "bool"
        }
      ],
      "stateMutability": "view",
      "type": "function"
    },
    {
      "inputs": [
        {
          "internalType": "uint256",
          "name": "_saleId",
          "type": "uint256"
        }
      ],
      "name": "buyNFT",
      "outputs": [],
      "stateMutability": "nonpayable",
      "type": "function"
    },
    {
      "inputs": [
        {
          "internalType": "uint256",
          "name": "_saleId",
          "type": "uint256"
        },
        {
          "internalType": "uint256",
          "name": "_newPrice",
          "type": "uint256"
        },
        {
          "internalType": "address",
          "name": "_paymentToken",
          "type": "address"
        }
      ],
      "name": "changeSalePrice",
      "outputs": [],
      "stateMutability": "nonpayable",
      "type": "function"
    },
    {
      "inputs": [
        {
          "internalType": "uint256",
          "name": "_auctionId",
          "type": "uint256"
        }
      ],
      "name": "closeAuction",
      "outputs": [],
      "stateMutability": "nonpayable",
      "type": "function"
    },
    {
      "inputs": [
        {
          "internalType": "uint256",
          "name": "_saleId",
          "type": "uint256"
        }
      ],
      "name": "closeSale",
      "outputs": [],
      "stateMutability": "nonpayable",
      "type": "function"
    },
    {
      "inputs": [
        {
          "internalType": "uint256",
          "name": "_maxSupply",
          "type": "uint256"
        },
        {
          "internalType": "uint256",
          "name": "_mintPrice",
          "type": "uint256"
        },
        {
          "internalType": "uint256",
          "name": "_startTimestamp",
          "type": "uint256"
        },
        {
          "internalType": "uint256",
          "name": "_endTimestamp",
          "type": "uint256"
        },
        {
          "internalType": "uint256",
          "name": "_maxMintAmount",
          "type": "uint256"
        },
        {
          "internalType": "string",
          "name": "_name",
          "type": "string"
        },
        {
          "internalType": "string",
          "name": "_symbol",
          "type": "string"
        },
        {
          "internalType": "string",
          "name": "_baseURI",
          "type": "string"
        }
      ],
      "name": "createERC721Collection",
      "outputs": [],
      "stateMutability": "nonpayable",
      "type": "function"
    },
    {
      "inputs": [
        {
          "internalType": "uint256",
          "name": "_auctionId",
          "type": "uint256"
        }
      ],
      "name": "finishAuction",
      "outputs": [],
      "stateMutability": "nonpayable",
      "type": "function"
    },
    {
      "inputs": [
        {
          "internalType": "uint256",
          "name": "_auctionId",
          "type": "uint256"
        }
      ],
      "name": "getAuctionCollection",
      "outputs": [
        {
          "internalType": "address",
          "name": "",
          "type": "address"
        },
        {
          "internalType": "uint256[]",
          "name": "",
          "type": "uint256[]"
        }
      ],
      "stateMutability": "view",
      "type": "function"
    },
    {
      "inputs": [],
      "name": "getAvailableAuctionIds",
      "outputs": [
        {
          "internalType": "uint256[]",
          "name": "",
          "type": "uint256[]"
        }
      ],
      "stateMutability": "view",
      "type": "function"
    },
    {
      "inputs": [
        {
          "internalType": "address",
          "name": "_account",
          "type": "address"
        },
        {
          "internalType": "address",
          "name": "_tokenAddress",
          "type": "address"
        }
      ],
      "name": "getAvailableOffers",
      "outputs": [
        {
          "components": [
            {
              "internalType": "address",
              "name": "owner",
              "type": "address"
            },
            {
              "internalType": "address",
              "name": "offeror",
              "type": "address"
            },
            {
              "internalType": "address",
              "name": "paymentToken",
              "type": "address"
            },
            {
              "internalType": "address",
              "name": "collectionAddress",
              "type": "address"
            },
            {
              "internalType": "uint256",
              "name": "tokenId",
              "type": "uint256"
            },
            {
              "internalType": "uint256",
              "name": "quantity",
              "type": "uint256"
            },
            {
              "internalType": "uint256",
              "name": "offerPrice",
              "type": "uint256"
            },
            {
              "internalType": "bool",
              "name": "isERC721",
              "type": "bool"
            }
          ],
          "internalType": "struct IMarketPlace.OfferInfo[]",
          "name": "",
          "type": "tuple[]"
        },
        {
          "internalType": "uint256[]",
          "name": "",
          "type": "uint256[]"
        }
      ],
      "stateMutability": "view",
      "type": "function"
    },
    {
      "inputs": [],
      "name": "getAvailableSaleIds",
      "outputs": [
        {
          "internalType": "uint256[]",
          "name": "",
          "type": "uint256[]"
        }
      ],
      "stateMutability": "view",
      "type": "function"
    },
    {
      "inputs": [
        {
          "internalType": "address",
          "name": "_launchPad",
          "type": "address"
        },
        {
          "internalType": "uint16",
          "name": "_platformFee",
          "type": "uint16"
        }
      ],
      "name": "initialize",
      "outputs": [],
      "stateMutability": "nonpayable",
      "type": "function"
    },
    {
      "inputs": [],
      "name": "launchPad",
      "outputs": [
        {
          "internalType": "contract ILaunchPad",
          "name": "",
          "type": "address"
        }
      ],
      "stateMutability": "view",
      "type": "function"
    },
    {
      "inputs": [
        {
          "internalType": "address",
          "name": "_tokenAddress",
          "type": "address"
        },
        {
          "internalType": "address",
          "name": "_paymentToken",
          "type": "address"
        },
        {
          "internalType": "uint256",
          "name": "_tokenId",
          "type": "uint256"
        },
        {
          "internalType": "uint256",
          "name": "_quantity",
          "type": "uint256"
        },
        {
          "internalType": "uint256",
          "name": "_startPrice",
          "type": "uint256"
        },
        {
          "internalType": "uint256",
          "name": "_endTimestamp",
          "type": "uint256"
        },
        {
          "internalType": "bool",
          "name": "_isTimeAuction",
          "type": "bool"
        }
      ],
      "name": "listERC1155ForAuction",
      "outputs": [],
      "stateMutability": "nonpayable",
      "type": "function"
    },
    {
      "inputs": [
        {
          "internalType": "address",
          "name": "_tokenAddress",
          "type": "address"
        },
        {
          "internalType": "address",
          "name": "_paymentToken",
          "type": "address"
        },
        {
          "internalType": "uint256",
          "name": "_tokenId",
          "type": "uint256"
        },
        {
          "internalType": "uint256",
          "name": "_quantity",
          "type": "uint256"
        },
        {
          "internalType": "uint256",
          "name": "_price",
          "type": "uint256"
        }
      ],
      "name": "listERC1155ForSale",
      "outputs": [],
      "stateMutability": "nonpayable",
      "type": "function"
    },
    {
      "inputs": [
        {
          "internalType": "address",
          "name": "_tokenAddress",
          "type": "address"
        },
        {
          "internalType": "address",
          "name": "_paymentToken",
          "type": "address"
        },
        {
          "internalType": "uint256[]",
          "name": "_tokenIds",
          "type": "uint256[]"
        },
        {
          "internalType": "uint256",
          "name": "_startPrice",
          "type": "uint256"
        },
        {
          "internalType": "uint256",
          "name": "_endTimestamp",
          "type": "uint256"
        },
        {
          "internalType": "bool",
          "name": "_isTimeAuction",
          "type": "bool"
        }
      ],
      "name": "listERC721ForAuction",
      "outputs": [],
      "stateMutability": "nonpayable",
      "type": "function"
    },
    {
      "inputs": [
        {
          "internalType": "address",
          "name": "_tokenAddress",
          "type": "address"
        },
        {
          "internalType": "address",
          "name": "_paymentToken",
          "type": "address"
        },
        {
          "internalType": "uint256[]",
          "name": "_tokenIds",
          "type": "uint256[]"
        },
        {
          "internalType": "uint256",
          "name": "_price",
          "type": "uint256"
        }
      ],
      "name": "listERC721ForSale",
      "outputs": [],
      "stateMutability": "nonpayable",
      "type": "function"
    },
    {
      "inputs": [],
      "name": "maxAuctionTime",
      "outputs": [
        {
          "internalType": "uint256",
          "name": "",
          "type": "uint256"
        }
      ],
      "stateMutability": "view",
      "type": "function"
    },
    {
      "inputs": [],
      "name": "offerId",
      "outputs": [
        {
          "internalType": "uint256",
          "name": "",
          "type": "uint256"
        }
      ],
      "stateMutability": "view",
      "type": "function"
    },
    {
      "inputs": [
        {
          "internalType": "uint256",
          "name": "",
          "type": "uint256"
        }
      ],
      "name": "offerInfos",
      "outputs": [
        {
          "internalType": "address",
          "name": "owner",
          "type": "address"
        },
        {
          "internalType": "address",
          "name": "offeror",
          "type": "address"
        },
        {
          "internalType": "address",
          "name": "paymentToken",
          "type": "address"
        },
        {
          "internalType": "address",
          "name": "collectionAddress",
          "type": "address"
        },
        {
          "internalType": "uint256",
          "name": "tokenId",
          "type": "uint256"
        },
        {
          "internalType": "uint256",
          "name": "quantity",
          "type": "uint256"
        },
        {
          "internalType": "uint256",
          "name": "offerPrice",
          "type": "uint256"
        },
        {
          "internalType": "bool",
          "name": "isERC721",
          "type": "bool"
        }
      ],
      "stateMutability": "view",
      "type": "function"
    },
    {
      "inputs": [
        {
          "internalType": "address",
          "name": "",
          "type": "address"
        },
        {
          "internalType": "address",
          "name": "",
          "type": "address"
        },
        {
          "internalType": "uint256[]",
          "name": "",
          "type": "uint256[]"
        },
        {
          "internalType": "uint256[]",
          "name": "",
          "type": "uint256[]"
        },
        {
          "internalType": "bytes",
          "name": "",
          "type": "bytes"
        }
      ],
      "name": "onERC1155BatchReceived",
      "outputs": [
        {
          "internalType": "bytes4",
          "name": "",
          "type": "bytes4"
        }
      ],
      "stateMutability": "nonpayable",
      "type": "function"
    },
    {
      "inputs": [
        {
          "internalType": "address",
          "name": "",
          "type": "address"
        },
        {
          "internalType": "address",
          "name": "",
          "type": "address"
        },
        {
          "internalType": "uint256",
          "name": "",
          "type": "uint256"
        },
        {
          "internalType": "uint256",
          "name": "",
          "type": "uint256"
        },
        {
          "internalType": "bytes",
          "name": "",
          "type": "bytes"
        }
      ],
      "name": "onERC1155Received",
      "outputs": [
        {
          "internalType": "bytes4",
          "name": "",
          "type": "bytes4"
        }
      ],
      "stateMutability": "nonpayable",
      "type": "function"
    },
    {
      "inputs": [
        {
          "internalType": "address",
          "name": "",
          "type": "address"
        },
        {
          "internalType": "address",
          "name": "",
          "type": "address"
        },
        {
          "internalType": "uint256",
          "name": "",
          "type": "uint256"
        },
        {
          "internalType": "bytes",
          "name": "",
          "type": "bytes"
        }
      ],
      "name": "onERC721Received",
      "outputs": [
        {
          "internalType": "bytes4",
          "name": "",
          "type": "bytes4"
        }
      ],
      "stateMutability": "nonpayable",
      "type": "function"
    },
    {
      "inputs": [],
      "name": "owner",
      "outputs": [
        {
          "internalType": "address",
          "name": "",
          "type": "address"
        }
      ],
      "stateMutability": "view",
      "type": "function"
    },
    {
      "inputs": [],
      "name": "pause",
      "outputs": [],
      "stateMutability": "nonpayable",
      "type": "function"
    },
    {
      "inputs": [],
      "name": "paused",
      "outputs": [
        {
          "internalType": "bool",
          "name": "",
          "type": "bool"
        }
      ],
      "stateMutability": "view",
      "type": "function"
    },
    {
      "inputs": [
        {
          "internalType": "uint256",
          "name": "_auctionId",
          "type": "uint256"
        },
        {
          "internalType": "uint256",
          "name": "_amount",
          "type": "uint256"
        }
      ],
      "name": "placeBid",
      "outputs": [],
      "stateMutability": "nonpayable",
      "type": "function"
    },
    {
      "inputs": [
        {
          "components": [
            {
              "internalType": "address",
              "name": "owner",
              "type": "address"
            },
            {
              "internalType": "address",
              "name": "offeror",
              "type": "address"
            },
            {
              "internalType": "address",
              "name": "paymentToken",
              "type": "address"
            },
            {
              "internalType": "address",
              "name": "collectionAddress",
              "type": "address"
            },
            {
              "internalType": "uint256",
              "name": "tokenId",
              "type": "uint256"
            },
            {
              "internalType": "uint256",
              "name": "quantity",
              "type": "uint256"
            },
            {
              "internalType": "uint256",
              "name": "offerPrice",
              "type": "uint256"
            },
            {
              "internalType": "bool",
              "name": "isERC721",
              "type": "bool"
            }
          ],
          "internalType": "struct IMarketPlace.OfferInfo",
          "name": "_offerInfo",
          "type": "tuple"
        }
      ],
      "name": "placeOffer",
      "outputs": [],
      "stateMutability": "nonpayable",
      "type": "function"
    },
    {
      "inputs": [],
      "name": "platformFee",
      "outputs": [
        {
          "internalType": "uint16",
          "name": "",
          "type": "uint16"
        }
      ],
      "stateMutability": "view",
      "type": "function"
    },
    {
      "inputs": [],
      "name": "renounceOwnership",
      "outputs": [],
      "stateMutability": "nonpayable",
      "type": "function"
    },
    {
      "inputs": [
        {
          "internalType": "address",
          "name": "",
          "type": "address"
        }
      ],
      "name": "royaltyInfos",
      "outputs": [
        {
          "internalType": "address",
          "name": "collectionOwner",
          "type": "address"
        },
        {
          "internalType": "uint16",
          "name": "royaltyRate",
          "type": "uint16"
        }
      ],
      "stateMutability": "view",
      "type": "function"
    },
    {
      "inputs": [],
      "name": "saleId",
      "outputs": [
        {
          "internalType": "uint256",
          "name": "",
          "type": "uint256"
        }
      ],
      "stateMutability": "view",
      "type": "function"
    },
    {
      "inputs": [
        {
          "internalType": "uint256",
          "name": "",
          "type": "uint256"
        }
      ],
      "name": "sellInfos",
      "outputs": [
        {
          "internalType": "address",
          "name": "seller",
          "type": "address"
        },
        {
          "internalType": "address",
          "name": "collectionAddress",
          "type": "address"
        },
        {
          "internalType": "address",
          "name": "paymentToken",
          "type": "address"
        },
        {
          "internalType": "uint256",
          "name": "quantity",
          "type": "uint256"
        },
        {
          "internalType": "uint256",
          "name": "price",
          "type": "uint256"
        },
        {
          "internalType": "bool",
          "name": "isERC721",
          "type": "bool"
        }
      ],
      "stateMutability": "view",
      "type": "function"
    },
    {
      "inputs": [
        {
          "internalType": "address[]",
          "name": "_tokens",
          "type": "address[]"
        },
        {
          "internalType": "bool",
          "name": "_isAdd",
          "type": "bool"
        }
      ],
      "name": "setAllowedToken",
      "outputs": [],
      "stateMutability": "nonpayable",
      "type": "function"
    },
    {
      "inputs": [
        {
          "internalType": "address[]",
          "name": "_users",
          "type": "address[]"
        },
        {
          "internalType": "bool",
          "name": "_isAdd",
          "type": "bool"
        }
      ],
      "name": "setBlacklistedUser",
      "outputs": [],
      "stateMutability": "nonpayable",
      "type": "function"
    },
    {
      "inputs": [
        {
          "internalType": "address[]",
          "name": "_collections",
          "type": "address[]"
        },
        {
          "internalType": "uint256[]",
          "name": "_tokenIds",
          "type": "uint256[]"
        },
        {
          "internalType": "bool",
          "name": "_isAdd",
          "type": "bool"
        }
      ],
      "name": "setBlockedTokenIds",
      "outputs": [],
      "stateMutability": "nonpayable",
      "type": "function"
    },
    {
      "inputs": [
        {
          "internalType": "address",
          "name": "_launchPad",
          "type": "address"
        }
      ],
      "name": "setLaunchPad",
      "outputs": [],
      "stateMutability": "nonpayable",
      "type": "function"
    },
    {
      "inputs": [
        {
          "internalType": "uint256",
          "name": "_maxAuctionTime",
          "type": "uint256"
        }
      ],
      "name": "setMaxAuctionTime",
      "outputs": [],
      "stateMutability": "nonpayable",
      "type": "function"
    },
    {
      "inputs": [
        {
          "internalType": "uint16",
          "name": "_platformFee",
          "type": "uint16"
        }
      ],
      "name": "setPlatformFee",
      "outputs": [],
      "stateMutability": "nonpayable",
      "type": "function"
    },
    {
      "inputs": [
        {
          "internalType": "address",
          "name": "_collection",
          "type": "address"
        },
        {
          "internalType": "uint16",
          "name": "_royaltyRate",
          "type": "uint16"
        }
      ],
      "name": "setRoyalty",
      "outputs": [],
      "stateMutability": "nonpayable",
      "type": "function"
    },
    {
      "inputs": [
        {
          "internalType": "address",
          "name": "_wrapperGateway",
          "type": "address"
        }
      ],
      "name": "setWrapperGateway",
      "outputs": [],
      "stateMutability": "nonpayable",
      "type": "function"
    },
    {
      "inputs": [
        {
          "internalType": "bytes4",
          "name": "interfaceId",
          "type": "bytes4"
        }
      ],
      "name": "supportsInterface",
      "outputs": [
        {
          "internalType": "bool",
          "name": "",
          "type": "bool"
        }
      ],
      "stateMutability": "view",
      "type": "function"
    },
    {
      "inputs": [
        {
          "internalType": "address",
          "name": "newOwner",
          "type": "address"
        }
      ],
      "name": "transferOwnership",
      "outputs": [],
      "stateMutability": "nonpayable",
      "type": "function"
    },
    {
      "inputs": [],
      "name": "unpause",
      "outputs": [],
      "stateMutability": "nonpayable",
      "type": "function"
    },
    {
      "inputs": [],
      "name": "wrapperGateway",
      "outputs": [
        {
          "internalType": "address",
          "name": "",
          "type": "address"
        }
      ],
      "stateMutability": "view",
      "type": "function"
    }
  ],
  "bytecode": "0x60806040523480156200001157600080fd5b506200001c62000022565b620000e3565b600054610100900460ff16156200008f5760405162461bcd60e51b815260206004820152602760248201527f496e697469616c697a61626c653a20636f6e747261637420697320696e697469604482015266616c697a696e6760c81b606482015260840160405180910390fd5b60005460ff90811614620000e1576000805460ff191660ff9081179091556040519081527f7f26b83ff96e1f2b6a682f133852f6798a09c465da95921460cefb38474024989060200160405180910390a15b565b6156b580620000f36000396000f3fe608060405234801561001057600080fd5b50600436106102d65760003560e01c80637a458d7a11610182578063c84c0387116100e9578063e744092e116100a2578063f385c02b1161007c578063f385c02b146108c5578063f39e69a4146108cd578063f830131d146108e0578063fb44d39f1461090157600080fd5b8063e744092e1461086f578063f23a6e6114610893578063f2fde38b146108b257600080fd5b8063c84c038714610806578063c9c628a214610810578063cf266ed014610823578063d5f7e7d514610836578063dc46847714610849578063e66810741461085c57600080fd5b8063a424ad961161013b578063a424ad9614610777578063aac58f271461078a578063b1983d941461079d578063b235037c146107c1578063bc197c81146107d4578063c815729d146107f357600080fd5b80637a458d7a1461071a5780638456cb59146107235780638da5cb5b1461072b578063959cba111461073c578063959d819c1461074f578063a4223d531461076457600080fd5b8063564ec3c011610241578063693f9c88116101fa5780636ac0d54b116101d45780636ac0d54b146106135780636da37a10146106265780636ec150db146106b9578063715018a61461071257600080fd5b8063693f9c88146105195780636984c2071461052c5780636a5a3ed81461053f57600080fd5b8063564ec3c0146103f457806357c90de51461040757806358f6b16e1461041a5780635c975abb146104465780635cbc742c14610451578063604f70c11461046457600080fd5b80632394d316116102935780632394d3161461038757806326232a2e1461039a5780633f4ba83a146103bc5780634fa4fc29146103c4578063518b057e146103d757806351ed8288146103e157600080fd5b806301ffc9a7146102db5780630cfd12a91461030357806310782f8f14610324578063150b7a021461033c57806321ce9f9114610368578063236ed8f314610372575b600080fd5b6102ee6102e936600461468e565b610915565b60405190151581526020015b60405180910390f35b6103166103113660046146b8565b61094c565b6040516102fa92919061470c565b61032e61019e5481565b6040519081526020016102fa565b61034f61034a36600461480a565b610a5b565b6040516001600160e01b031990911681526020016102fa565b61032e61019f5481565b6103856103803660046146b8565b610a6c565b005b61038561039536600461488e565b610c3d565b6101a1546103a99061ffff1681565b60405161ffff90911681526020016102fa565b610385610fb4565b6103856103d2366004614997565b610ff7565b61032e6101a05481565b6103856103ef3660046146b8565b6110e5565b610385610402366004614a43565b61132d565b610385610415366004614aba565b611467565b61019b5461042e906001600160a01b031681565b6040516001600160a01b0390911681526020016102fa565b60655460ff166102ee565b61038561045f366004614aee565b6116d5565b6104ca6104723660046146b8565b61019a60205260009081526040902080546001820154600283015460038401546004850154600586015460068701546007909701546001600160a01b0396871697958716969485169593909416939192909160ff1688565b604080516001600160a01b03998a168152978916602089015295881695870195909552959092166060850152608084015260a083015260c082019290925290151560e0820152610100016102fa565b610385610527366004614b09565b611775565b61038561053a366004614b5a565b6119df565b6105b561054d3660046146b8565b610194602052600090815260409020805460018201546002830154600384015460058501546006860154600787015460088801546009909801546001600160a01b03978816989688169795861696959094169492939192909160ff808216916101009004168a565b604080516001600160a01b039b8c168152998b1660208b0152978a1697890197909752979094166060870152608086019290925260a085015260c084015260e0830152911515610100820152901515610120820152610140016102fa565b610385610621366004614997565b611a70565b61067b6106343660046146b8565b610193602052600090815260409020805460018201546002830154600484015460058501546006909501546001600160a01b03948516959385169490921692909160ff1686565b604080516001600160a01b039788168152958716602087015293909516928401929092526060830152608082015290151560a082015260c0016102fa565b6106f06106c7366004614b5a565b610191602052600090815260409020546001600160a01b03811690600160a01b900461ffff1682565b604080516001600160a01b03909316835261ffff9091166020830152016102fa565b610385611b51565b6103a96103e881565b610385611b65565b6097546001600160a01b031661042e565b61038561074a366004614b77565b611ba8565b610757611e35565b6040516102fa9190614bff565b6103856107723660046146b8565b611e47565b6103856107853660046146b8565b611fd5565b610385610798366004614b5a565b61205c565b6102ee6107ab366004614b5a565b6101966020526000908152604090205460ff1681565b6103856107cf366004614c12565b612102565b61034f6107e2366004614cc6565b63bc197c8160e01b95945050505050565b6103856108013660046146b8565b61268f565b61032e61019d5481565b61038561081e366004614d73565b612920565b6103856108313660046146b8565b612b1c565b610385610844366004614da8565b612e03565b610385610857366004614e11565b612fcd565b61038561086a366004614e3f565b61314a565b6102ee61087d366004614b5a565b6101956020526000908152604090205460ff1681565b61034f6108a1366004614ef7565b63f23a6e6160e01b95945050505050565b6103856108c0366004614b5a565b61325d565b6107576132d3565b6103856108db366004614d73565b6132e0565b6108f36108ee366004614f5f565b6134bb565b6040516102fa929190614f8d565b61019c5461042e906001600160a01b031681565b60006001600160e01b03198216630271189760e51b148061094657506301ffc9a760e01b6001600160e01b03198316145b92915050565b60008181526101946020908152604080832081516101608101835281546001600160a01b039081168252600183015481168286015260028301548116828501526003830154166060828101919091526004830180548551818802810188019096528086529195879593949360808601939092918301828280156109ee57602002820191906000526020600020905b8154815260200190600101908083116109da575b505050918352505060058201546020808301919091526006830154604083015260078301546060830152600883015460808084019190915260099093015460ff808216151560a085015261010090910416151560c090920191909152820151910151909590945092505050565b630a85bd0160e11b5b949350505050565b610a746136e8565b610a7c61372e565b60008181526101946020908152604080832081516101608101835281546001600160a01b039081168252600183015481168286015260028301548116828501526003830154166060820152600482018054845181870281018701909552808552919492936080860193909290830182828015610b1757602002820191906000526020600020905b815481526020019060010190808311610b03575b50505091835250506005820154602082015260068201546040820152600782015460608201526008820154608082015260099091015460ff808216151560a084015261010090910416151560c0909101529050610b766101a483613788565b610b9b5760405162461bcd60e51b8152600401610b9290615042565b60405180910390fd5b610bab82826000015160006137a3565b610bce308260000151836020015184608001518560a0015186610120015161380f565b60608101516001600160a01b0316610be4575050565b610c048160200151826040015130846060015185610100015160006138ad565b6040518281527fac4a907ec29adcc56774b757ecb1e1b4d597374fc9386107d05e2670259df7d3906020015b60405180910390a1505b50565b610c456136e8565b336000908152610196602052604090205460ff1615610c765760405162461bcd60e51b8152600401610b9290615070565b33610c8481898989896139df565b6000610c908385613b7e565b61019e80549192506000919082610ca6836150b0565b919050559050610cb8818460016137a3565b604080516001808252818301909252600091602080830190803683370190505090508881600081518110610cee57610cee6150c9565b602002602001018181525050604051806101600160405280856001600160a01b031681526020018c6001600160a01b031681526020018b6001600160a01b0316815260200160006001600160a01b0316815260200182815260200160018152602001888152602001848152602001888152602001600015158152602001861515815250610194600084815260200190815260200160002060008201518160000160006101000a8154816001600160a01b0302191690836001600160a01b0316021790555060208201518160010160006101000a8154816001600160a01b0302191690836001600160a01b0316021790555060408201518160020160006101000a8154816001600160a01b0302191690836001600160a01b0316021790555060608201518160030160006101000a8154816001600160a01b0302191690836001600160a01b031602179055506080820151816004019080519060200190610e5592919061462e565b5060a0820151600582015560c0820151600682015560e08201516007820155610100808301516008830155610120830151600990920180546101409094015161ffff1990941692151561ff0019169290921792151502919091179055604051637921219560e11b81526001600160a01b038c169063f242432a90610ee390879030908e908e906004016150df565b600060405180830381600087803b158015610efd57600080fd5b505af1158015610f11573d6000803e3d6000fd5b505050507f58b7ac2e755d5683c8b6e94603440f347ec6cdaa189c08affa0a5b2d8339a321848c8c858d8d8d8a8d604051610f9f999897969594939291906001600160a01b03998a16815297891660208901529590971660408701526060860193909352608085019190915260a084015260c083015260e08201929092529015156101008201526101200190565b60405180910390a15050505050505050505050565b610fbc613c3b565b610fc461372e565b610fcc613c84565b6040517f7805862f689e2f13df9f062ff482ad3ad112aca9e0847911ed832e158c525b3390600090a1565b610fff61372e565b81518061103f5760405162461bcd60e51b815260206004820152600e60248201526d0d2dcecc2d8d2c840d8cadccee8d60931b6044820152606401610b92565b60005b818110156110a657826101956000868481518110611062576110626150c9565b6020908102919091018101516001600160a01b03168252810191909152604001600020805460ff19169115159190911790558061109e816150b0565b915050611042565b507fd2ed117d111d55dc9951b19b1dc6a30e3d2c2dcde70c803b99929f9c079b79c683836040516110d8929190615150565b60405180910390a1505050565b6110ed6136e8565b6110f5613cd6565b336000908152610196602052604090205460ff16156111265760405162461bcd60e51b8152600401610b9290615070565b600081815261019360209081526040808320815160e08101835281546001600160a01b03908116825260018301548116828601526002830154168184015260038201805484518187028101870190955280855233969592946060860193909291908301828280156111b657602002820191906000526020600020905b8154815260200190600101908083116111a2575b5050509183525050600482015460208201526005820154604082015260069091015460ff16151560609091015290506111f16101a284613788565b61120d5760405162461bcd60e51b8152600401610b9290615174565b80516001600160a01b0380841691160361125c5760405162461bcd60e51b815260206004820152601060248201526f31b0b63632b91034b99039b2b63632b960811b6044820152606401610b92565b6000816040015190506112808260200151828585600001518660a0015160016138ad565b61019c546112be9030906001600160a01b03908116908616036112a357326112a5565b845b8460200151856060015186608001518760c0015161380f565b6112ce8483600001516000613d2f565b7fbe11103d7a600467eed83b7bea9cda076eec972f8a6c0cb906293f17a216d99583836020015184606001518560800151858760a001518a604051611319979695949392919061519f565b60405180910390a1505050610c3a60018055565b61133561372e565b825180158015906113465750825181145b6113865760405162461bcd60e51b81526020600482015260116024820152701b195b99dd1a08191a5cdb585d18da1959607a1b6044820152606401610b92565b60005b81811015611425578261019260008784815181106113a9576113a96150c9565b60200260200101516001600160a01b03166001600160a01b0316815260200190815260200160002060008684815181106113e5576113e56150c9565b6020026020010151815260200190815260200160002060006101000a81548160ff021916908315150217905550808061141d906150b0565b915050611389565b507f24740a552aa7a96aef4d6b0d0e764447872c479aa98246b1ca71fe971752a70a848484604051611459939291906151f0565b60405180910390a150505050565b61146f6136e8565b336000908152610196602052604090205460ff16156114a05760405162461bcd60e51b8152600401610b9290615070565b60008281526101946020526040902033906114bd6101a485613788565b6114d95760405162461bcd60e51b8152600401610b9290615042565b80546001600160a01b0380841691160361152e5760405162461bcd60e51b81526020600482015260166024820152753134b232b91034b99030bab1ba34b7b71036b0b5b2b960511b6044820152606401610b92565b8281600601541061156d5760405162461bcd60e51b81526020600482015260096024820152686c6f7720707269636560b81b6044820152606401610b92565b828160080154106115c05760405162461bcd60e51b815260206004820152601f60248201527f6c6f776572207072696365207468616e206c6173742077696e207072696365006044820152606401610b92565b6009810154610100900460ff161561161d578060070154421061161d5760405162461bcd60e51b815260206004820152601560248201527437bb32b91030bab1ba34b7b710323ab930ba34b7b760591b6044820152606401610b92565b6003810180546008830180546001600160a01b038681166001600160a01b0319851617909455908690559116908115611669576002830154611669906001600160a01b03168383613d95565b6002830154611683906001600160a01b0316853088613df8565b604080516001600160a01b0386168152602081018890529081018690527fdf8644c0a4c21ed214ce69f395675b3a5fcd1039083daea5058898de40ea31499060600160405180910390a1505050505050565b6116dd61372e565b6103e861ffff8216106117295760405162461bcd60e51b8152602060048201526014602482015273696e76616c696420706c6174666f726d2066656560601b6044820152606401610b92565b6101a1805461ffff191661ffff83169081179091556040519081527f1426859b6b96e2e9ae302b23a42f763f4b0ae916a71a093e61c77120458b2e95906020015b60405180910390a150565b61177d6136e8565b336000908152610196602052604090205460ff16156117ae5760405162461bcd60e51b8152600401610b9290615070565b336117bc81878787876139df565b6117cb61019d54826001613d2f565b604080516001808252818301909252600091602080830190803683370190505090508481600081518110611801576118016150c9565b6020026020010181815250506040518060e00160405280836001600160a01b03168152602001886001600160a01b03168152602001876001600160a01b0316815260200182815260200185815260200184815260200160001515815250610193600061019d6000815480929190611877906150b0565b9091555081526020808201929092526040908101600020835181546001600160a01b03199081166001600160a01b03928316178355858501516001840180548316918416919091179055928501516002830180549094169116179091556060830151805191926118ef9260038501929091019061462e565b50608082015160048281019190915560a0830151600583015560c0909201516006909101805460ff1916911515919091179055604051637921219560e11b81526001600160a01b0389169163f242432a9161195291869130918b918b91016150df565b600060405180830381600087803b15801561196c57600080fd5b505af1158015611980573d6000803e3d6000fd5b505050507fc049489d7ae21e53d458ed010481eec6112a411ba3f293b4dbb5273560dd4b93828888888888600161019d546119bb9190615228565b6040516119ce979695949392919061523b565b60405180910390a150505050505050565b6119e761372e565b6001600160a01b038116611a4d5760405162461bcd60e51b815260206004820152602760248201527f696e76616c696420777261707065724761746577617920636f6e7472616374206044820152666164647265737360c81b6064820152608401610b92565b61019c80546001600160a01b0319166001600160a01b0392909216919091179055565b611a7861372e565b815180611ab85760405162461bcd60e51b815260206004820152600e60248201526d0d2dcecc2d8d2c840d8cadccee8d60931b6044820152606401610b92565b60005b81811015611b1f57826101966000868481518110611adb57611adb6150c9565b6020908102919091018101516001600160a01b03168252810191909152604001600020805460ff191691151591909117905580611b17816150b0565b915050611abb565b507f93c66788b6a31dc8388ed69002b94819abae21b8796e9fa53ef2bd65603206b283836040516110d8929190615150565b611b5961372e565b611b636000613e30565b565b611b6d6136e8565b611b7561372e565b611b7d613e82565b6040517f6985a02210a168e66602d3235cb6db0e70f92b3ba4d376a33c0f3d9434bff62590600090a1565b611bb06136e8565b336000908152610196602052604090205460ff1615611be15760405162461bcd60e51b8152600401610b9290615070565b33611bee81888888613ebf565b6000611bfa8385613b7e565b61019e80549192506000919082611c10836150b0565b919050559050611c22818460016137a3565b604051806101600160405280846001600160a01b031681526020018a6001600160a01b03168152602001896001600160a01b0316815260200160006001600160a01b0316815260200188815260200160018152602001878152602001838152602001878152602001600115158152602001851515815250610194600083815260200190815260200160002060008201518160000160006101000a8154816001600160a01b0302191690836001600160a01b0316021790555060208201518160010160006101000a8154816001600160a01b0302191690836001600160a01b0316021790555060408201518160020160006101000a8154816001600160a01b0302191690836001600160a01b0316021790555060608201518160030160006101000a8154816001600160a01b0302191690836001600160a01b031602179055506080820151816004019080519060200190611d7d92919061462e565b5060a0820151600582015560c0820151600682015560e08201516007820155610100808301516008830155610120830151600990920180546101409094015161ffff1990941692151561ff0019169290921792151502919091179055611de583308b8a6140a0565b7f1f06c8078a2266f97c4ebaf90d490af7f1049a4a222eab10e7b07a10b4bc3555838a8a848b8b888b604051611e2298979695949392919061527c565b60405180910390a1505050505050505050565b6060611e426101a2614154565b905090565b611e4f613cd6565b611e576136e8565b611e636101a282613788565b611e7f5760405162461bcd60e51b8152600401610b9290615174565b600081815261019360209081526040808320815160e08101835281546001600160a01b039081168252600183015481168286015260028301541681840152600382018054845181870281018701909552808552919492936060860193909290830182828015611f0d57602002820191906000526020600020905b815481526020019060010190808311611ef9575b5050509183525050600482015460208201526005820154604082015260069091015460ff16151560609091015280519091506001600160a01b03163314611f665760405162461bcd60e51b8152600401610b92906152db565b611f883082600001518360200151846060015185608001518660c0015161380f565b611f988282600001516000613d2f565b6040518281527fcb67f20f64495b30f15524c55f90201dd6571d6b5c19dac183d2aeb25315b2dc9060200160405180910390a150610c3a60018055565b611fdd61372e565b600081116120265760405162461bcd60e51b8152602060048201526016602482015275696e76616c6964206d617841756374696f6e54696d6560501b6044820152606401610b92565b6101a08190556040518181527fcdb0b1bc30002f7232834cdd8c85ceed2b6b21959d59ef91808d32d3a706eb929060200161176a565b61206461372e565b6001600160a01b0381166120b35760405162461bcd60e51b81526020600482015260166024820152757a65726f206c61756e6368506164206164647265737360501b6044820152606401610b92565b61019b80546001600160a01b0319166001600160a01b0383169081179091556040519081527fbfe5d5234ecc868dc71383950088e8b8e6c7ebc6c35667d9cbcf9854b5b36fad9060200161176a565b61210a6136e8565b336000908152610196602052604090205460ff161561213b5760405162461bcd60e51b8152600401610b9290615070565b602081015133906001600160a01b0316811461218f5760405162461bcd60e51b81526020600482015260136024820152723737ba1031b7b93932b1ba1037b33332b937b960691b6044820152606401610b92565b60008260a00151116121d35760405162461bcd60e51b815260206004820152600d60248201526c7a65726f207175616e7469747960981b6044820152606401610b92565b6040808301516001600160a01b03166000908152610195602052205460ff1661220e5760405162461bcd60e51b8152600401610b9290615302565b60608201516001600160a01b03166000908152610192602090815260408083206080860151845290915290205460ff161561225b5760405162461bcd60e51b8152600401610b9290615339565b60c08201516040808401519051636eb1769f60e11b81526001600160a01b0384811660048301523060248301529091169063dd62ed3e90604401602060405180830381865afa1580156122b2573d6000803e3d6000fd5b505050506040513d601f19601f820116820180604052508101906122d69190615370565b101561231b5760405162461bcd60e51b81526020600482015260146024820152736e6f7420656e6f75676820616c6c6f77616e636560601b6044820152606401610b92565b8160e00151156124505781600001516001600160a01b031682606001516001600160a01b0316636352211e84608001516040518263ffffffff1660e01b815260040161236991815260200190565b602060405180830381865afa158015612386573d6000803e3d6000fd5b505050506040513d601f19601f820116820180604052508101906123aa9190615389565b6001600160a01b0316146124005760405162461bcd60e51b815260206004820152601c60248201527f6e6f7420636f727265637420636f6c6c656374696f6e206f776e6572000000006044820152606401610b92565b8160a0015160011461244b5760405162461bcd60e51b81526020600482015260146024820152736e6f7420636f7272656374207175616e7469747960601b6044820152606401610b92565b612518565b60a0820151606083015183516080850151604051627eeac760e11b81526001600160a01b039283166004820152602481019190915291169062fdd58e90604401602060405180830381865afa1580156124ad573d6000803e3d6000fd5b505050506040513d601f19601f820116820180604052508101906124d19190615370565b10156125185760405162461bcd60e51b81526020600482015260166024820152756e6f7420656e6f756768204e46542062616c616e636560501b6044820152606401610b92565b61019f54612529906101a690614161565b5061019f5482516001600160a01b03908116600090815261019960209081526040808320606088015190941683529290522061256491614161565b5061019f8054839161019a916000918261257d836150b0565b9091555081526020808201929092526040908101600020835181546001600160a01b03199081166001600160a01b0392831617835585850151600180850180548416928516929092179091559386015160028401805483169184169190911790556060808701516003850180549093169316929092179055608080860151600484015560a080870151600585015560c080880151600686015560e0909701516007909401805460ff1916941515949094179093558751948801519188015190880151928801519588015161019f547f61559f36aa983d83833300a8be0864a898299ce015c2bb2bafb5bed8b3417d929793959294939261267c91615228565b604051610c30979695949392919061523b565b6126976136e8565b600081815261019a602090815260409182902082516101008101845281546001600160a01b039081168252600183015481169382019390935260028201548316938101939093526003810154909116606083015260048101546080830152600581015460a0830152600681015460c08301526007015460ff16151560e082015233906127256101a684613788565b6127665760405162461bcd60e51b81526020600482015260126024820152711b9bdd08195e1a5cdd1cc81bd999995c925960721b6044820152606401610b92565b816001600160a01b031681600001516001600160a01b03161461279b5760405162461bcd60e51b8152600401610b92906152db565b8060e00151156128235760608101518151602083015160808401516040516323b872dd60e01b81526001600160a01b039384166004820152918316602483015260448201529116906323b872dd90606401600060405180830381600087803b15801561280657600080fd5b505af115801561281a573d6000803e3d6000fd5b5050505061289c565b80606001516001600160a01b031663f242432a8260000151836020015184608001518560a001516040518563ffffffff1660e01b815260040161286994939291906150df565b600060405180830381600087803b15801561288357600080fd5b505af1158015612897573d6000803e3d6000fd5b505050505b6128bf81606001518260400151836020015184600001518560c0015160016138ad565b6128cd82826060015161416d565b7fcbe92017b4a841d643f87da4dc55e382d57e508c17e82e57d2836d7d166aa23381600001518260200151836060015184608001518560a001518660c00151896040516110d8979695949392919061523b565b6129286136e8565b336000908152610196602052604090205460ff16156129595760405162461bcd60e51b8152600401610b9290615070565b336001600160a01b0383166129805760405162461bcd60e51b8152600401610b92906153a6565b6103e861ffff8316106129cb5760405162461bcd60e51b8152602060048201526013602482015272696e76616c696420726f79616c74792066656560681b6044820152606401610b92565b806001600160a01b0316836001600160a01b0316638da5cb5b6040518163ffffffff1660e01b8152600401602060405180830381865afa158015612a13573d6000803e3d6000fd5b505050506040513d601f19601f82011682018060405250810190612a379190615389565b6001600160a01b031614612a845760405162461bcd60e51b81526020600482015260146024820152733737ba1031b7b63632b1ba34b7b71037bbb732b960611b6044820152606401610b92565b6040805180820182526001600160a01b0383811680835261ffff86811660208086018281528a861660008181526101918452899020975188549251909516600160a01b026001600160b01b03199092169490961693909317929092179094558451918252810191909152918201527f42467d290c72e182ef85378ad110bba52b9442ac5509a2fd4c2754a38dac93c9906060016110d8565b612b246136e8565b60008181526101946020908152604080832081516101608101835281546001600160a01b0390811682526001830154811682860152600283015481168285015260038301541660608201526004820180548451818702810187019095528085523396959294608086019390929190830182828015612bc157602002820191906000526020600020905b815481526020019060010190808311612bad575b50505091835250506005820154602082015260068201546040820152600782015460608201526008820154608082015260099091015460ff808216151560a084015261010090910416151560c0909101529050612c206101a484613788565b612c3c5760405162461bcd60e51b8152600401610b9290615042565b80610140015115612cf5578060e00151421015612c9b5760405162461bcd60e51b815260206004820152601760248201527f6265666f72652061756374696f6e206d617475726974790000000000000000006044820152606401610b92565b816001600160a01b031681600001516001600160a01b03161480612cd45750816001600160a01b031681606001516001600160a01b0316145b612cf05760405162461bcd60e51b8152600401610b92906152db565b612d2a565b816001600160a01b031681600001516001600160a01b031614612d2a5760405162461bcd60e51b8152600401610b92906152db565b612d3a83826000015160006137a3565b60608101516000906001600160a01b031615612d5a578160600151612d5d565b81515b9050612d7e3082846020015185608001518660a0015187610120015161380f565b60608201516001600160a01b0316612d965750505050565b612db68260200151836040015130856000015186610100015160016138ad565b81516020830151608084015160408086015161010087015191517fab18dbc205a3ba859023de815f2e40cb220afb887ac0a8967e4dc28eba27c48995611459958b959194899491936153dd565b612e0b6136e8565b336000908152610196602052604090205460ff1615612e3c5760405162461bcd60e51b8152600401610b9290615070565b33612e4981868686613ebf565b612e5861019d54826001613d2f565b6040518060e00160405280826001600160a01b03168152602001866001600160a01b03168152602001856001600160a01b031681526020018481526020016001815260200183815260200160011515815250610193600061019d6000815480929190612ec3906150b0565b9091555081526020808201929092526040908101600020835181546001600160a01b03199081166001600160a01b0392831617835585850151600184018054831691841691909117905592850151600283018054909416911617909155606083015180519192612f3b9260038501929091019061462e565b506080820151600482015560a0820151600582015560c0909101516006909101805460ff1916911515919091179055612f76813087866140a0565b7fe7b1aad6014cb512a41e2de0143b74bc855a8df9e231ec2c6adbca5d5ba66fb78186868686600161019d54612fac9190615228565b604051612fbe9695949392919061542a565b60405180910390a15050505050565b612fd5613cd6565b612fdd6136e8565b33612fea6101a285613788565b6130065760405162461bcd60e51b8152600401610b9290615174565b600084815261019360205260409020546001600160a01b0382811691161461305d5760405162461bcd60e51b815260206004820152600a6024820152693737ba1039b2b63632b960b11b6044820152606401610b92565b6001600160a01b0382166000908152610195602052604090205460ff166130965760405162461bcd60e51b8152600401610b9290615302565b60008481526101936020908152604091829020600281015460059091015483518881526001600160a01b039283169381019390935282840152841660608201526080810185905290517fe6ebde16babf9a2198004c8b3463bb79bd3692788ffba5e8df6ba324f4eb11ba9181900360a00190a1506000838152610193602052604090206005810183905560020180546001600160a01b0319166001600160a01b03831617905560018055505050565b505050565b6131526136e8565b336000908152610196602052604090205460ff16156131835760405162461bcd60e51b8152600401610b9290615070565b61019b546040516315ef080360e21b815233916000916001600160a01b03909116906357bc200c906131c9908d908d908d908d908d908a908e908e908e906004016154c3565b6020604051808303816000875af11580156131e8573d6000803e3d6000fd5b505050506040513d601f19601f8201168201806040525081019061320c9190615389565b90507fd0147958ceaf0927069281cbc39bbc5b038bc5d4d6751bb36233264ddd559a0e82828c8c8b8a8a604051613249979695949392919061553c565b60405180910390a150505050505050505050565b61326561372e565b6001600160a01b0381166132ca5760405162461bcd60e51b815260206004820152602660248201527f4f776e61626c653a206e6577206f776e657220697320746865207a65726f206160448201526564647265737360d01b6064820152608401610b92565b610c3a81613e30565b6060611e426101a4614154565b600054610100900460ff16158080156133005750600054600160ff909116105b8061331a5750303b15801561331a575060005460ff166001145b61337d5760405162461bcd60e51b815260206004820152602e60248201527f496e697469616c697a61626c653a20636f6e747261637420697320616c72656160448201526d191e481a5b9a5d1a585b1a5e995960921b6064820152608401610b92565b6000805460ff1916600117905580156133a0576000805461ff0019166101001790555b6133a8614223565b6001600160a01b0383166133f75760405162461bcd60e51b81526020600482015260166024820152757a65726f206c61756e6368506164206164647265737360501b6044820152606401610b92565b6103e861ffff8316106134435760405162461bcd60e51b8152602060048201526014602482015273696e76616c696420706c6174666f726d2066656560601b6044820152606401610b92565b6101a1805461ffff191661ffff841617905561019b80546001600160a01b0319166001600160a01b038516179055620d2f006101a0558015613145576000805461ff0019169055604051600181527f7f26b83ff96e1f2b6a682f133852f6798a09c465da95921460cefb3847402498906020016110d8565b3360009081526101966020526040902054606090819060ff16156134f15760405162461bcd60e51b8152600401610b9290615070565b6001600160a01b03808516600090815261019960209081526040808320938716835292905290812061352290614252565b90506000816001600160401b0381111561353e5761353e614755565b6040519080825280602002602001820160405280156135ad57816020015b604080516101008101825260008082526020808301829052928201819052606082018190526080820181905260a0820181905260c0820181905260e0820152825260001990920191018161355c5790505b506001600160a01b03808816600090815261019960209081526040808320938a168352929052908120919250906135e390614154565b9050826000036135f95790935091506136e19050565b60005b838110156136d9576000828281518110613618576136186150c9565b602090810291909101810151600081815261019a835260409081902081516101008101835281546001600160a01b039081168252600183015481169582019590955260028201548516928101929092526003810154909316606082015260048301546080820152600583015460a0820152600683015460c082015260079092015460ff16151560e083015285519092508590849081106136ba576136ba6150c9565b60200260200101819052505080806136d1906150b0565b9150506135fc565b509093509150505b9250929050565b60655460ff1615611b635760405162461bcd60e51b815260206004820152601060248201526f14185d5cd8589b194e881c185d5cd95960821b6044820152606401610b92565b6097546001600160a01b03163314611b635760405162461bcd60e51b815260206004820181905260248201527f4f776e61626c653a2063616c6c6572206973206e6f7420746865206f776e65726044820152606401610b92565b600081815260018301602052604081205415155b9392505050565b80156137df576137b56101a484614161565b506001600160a01b0382166000908152610198602052604090206137d99084614161565b50505050565b6137eb6101a48461425c565b506001600160a01b0382166000908152610198602052604090206137d9908461425c565b801561382657613821868686866140a0565b6138a5565b836001600160a01b031663f242432a87878660008151811061384a5761384a6150c9565b6020026020010151866040518563ffffffff1660e01b815260040161387294939291906150df565b600060405180830381600087803b15801561388c57600080fd5b505af11580156138a0573d6000803e3d6000fd5b505050505b505050505050565b6001600160a01b03841630146138d2576138d26001600160a01b038616853085613df8565b80156139cb576001600160a01b038681166000908152610191602090815260408083208151808301909252549384168152600160a01b90930461ffff908116918401919091526101a1546103e89161392b911686615599565b61393591906155b0565b905060006103e861ffff16836020015161ffff16866139549190615599565b61395e91906155b0565b905060008161396d8488615228565b6139779190615228565b905061398d6001600160a01b038a168883613d95565b6000821180156139a6575083516001600160a01b031615155b156139c25783516139c2906001600160a01b038b169084613d95565b505050506138a5565b6138a56001600160a01b0386168484613d95565b6001600160a01b038416613a055760405162461bcd60e51b8152600401610b92906153a6565b60008111613a455760405162461bcd60e51b815260206004820152600d60248201526c7a65726f207175616e7469747960981b6044820152606401610b92565b6001600160a01b03841660009081526101926020908152604080832085845290915290205460ff1615613a8a5760405162461bcd60e51b8152600401610b9290615339565b604051627eeac760e11b81526001600160a01b0386811660048301526024820184905282919086169062fdd58e90604401602060405180830381865afa158015613ad8573d6000803e3d6000fd5b505050506040513d601f19601f82011682018060405250810190613afc9190615370565b11613b3e5760405162461bcd60e51b81526020600482015260126024820152716e6f7420656e6f7567682062616c616e636560701b6044820152606401610b92565b6001600160a01b0383166000908152610195602052604090205460ff16613b775760405162461bcd60e51b8152600401610b9290615302565b5050505050565b6000821580613b8c57504282115b613bca5760405162461bcd60e51b815260206004820152600f60248201526e696e76616c696420656e6454696d6560881b6044820152606401610b92565b8215613c29576000613bdc4284615228565b90506101a054811115613c275760405162461bcd60e51b81526020600482015260136024820152726f766572206d617841756374696f6e54696d6560681b6044820152606401610b92565b505b82613c3557600061379c565b50919050565b60655460ff16611b635760405162461bcd60e51b815260206004820152601460248201527314185d5cd8589b194e881b9bdd081c185d5cd95960621b6044820152606401610b92565b613c8c613c3b565b6065805460ff191690557f5db9ee0a495bf2e6ff9c91a7834c1ba4fdd244a5e8aa4e537bd38aeae4b073aa335b6040516001600160a01b03909116815260200160405180910390a1565b600260015403613d285760405162461bcd60e51b815260206004820152601f60248201527f5265656e7472616e637947756172643a207265656e7472616e742063616c6c006044820152606401610b92565b6002600155565b8015613d6557613d416101a284614161565b506001600160a01b0382166000908152610197602052604090206137d99084614161565b613d716101a28461425c565b506001600160a01b0382166000908152610197602052604090206137d9908461425c565b6040516001600160a01b03831660248201526044810182905261314590849063a9059cbb60e01b906064015b60408051601f198184030181529190526020810180516001600160e01b03166001600160e01b031990931692909217909152614268565b6040516001600160a01b03808516602483015283166044820152606481018290526137d99085906323b872dd60e01b90608401613dc1565b609780546001600160a01b038381166001600160a01b0319831681179093556040519116919082907f8be0079c531659141344cd1fd0a4f28419497f9722a3daafe3b4186f6b6457e090600090a35050565b613e8a6136e8565b6065805460ff191660011790557f62e78cea01bee320cd4e420270b5ea74000d11b0c9f74754ebdbfc544b05a258613cb93390565b80516001600160a01b038416613ee75760405162461bcd60e51b8152600401610b92906153a6565b60008111613f275760405162461bcd60e51b815260206004820152600d60248201526c7a65726f20746f6b656e49447360981b6044820152606401610b92565b6001600160a01b0383166000908152610195602052604090205460ff16613f605760405162461bcd60e51b8152600401610b9290615302565b60005b818110156138a5576000838281518110613f7f57613f7f6150c9565b6020908102919091018101516001600160a01b038816600090815261019283526040808220838352909352919091205490915060ff1615613fd25760405162461bcd60e51b8152600401610b9290615339565b6040516331a9108f60e11b8152600481018290526001600160a01b038089169190881690636352211e90602401602060405180830381865afa15801561401c573d6000803e3d6000fd5b505050506040513d601f19601f820116820180604052508101906140409190615389565b6001600160a01b03161461408d5760405162461bcd60e51b81526020600482015260146024820152733737ba1031b7b63632b1ba34b7b71027bbb732b960611b6044820152606401610b92565b5080614098816150b0565b915050613f63565b60005b8151811015613b7757826001600160a01b03166323b872dd86868585815181106140cf576140cf6150c9565b60209081029190910101516040516001600160e01b031960e086901b1681526001600160a01b0393841660048201529290911660248301526044820152606401600060405180830381600087803b15801561412957600080fd5b505af115801561413d573d6000803e3d6000fd5b50505050808061414c906150b0565b9150506140a3565b6060600061379c8361433d565b600061379c8383614399565b6001600160a01b03808316600090815261019960209081526040808320938516835292905290812061419e90614154565b805190915060005b81811015613b775760008382815181106141c2576141c26150c9565b6020908102919091018101516001600160a01b03808916600090815261019984526040808220928a16825291909352909120909150614201908261425c565b5061420e6101a68261425c565b5050808061421b906150b0565b9150506141a6565b600054610100900460ff1661424a5760405162461bcd60e51b8152600401610b92906155d2565b611b636143e8565b6000610946825490565b600061379c8383614418565b60006142bd826040518060400160405280602081526020017f5361666545524332303a206c6f772d6c6576656c2063616c6c206661696c6564815250856001600160a01b031661450b9092919063ffffffff16565b90508051600014806142de5750808060200190518101906142de919061561d565b6131455760405162461bcd60e51b815260206004820152602a60248201527f5361666545524332303a204552433230206f7065726174696f6e20646964206e6044820152691bdd081cdd58d8d9595960b21b6064820152608401610b92565b60608160000180548060200260200160405190810160405280929190818152602001828054801561438d57602002820191906000526020600020905b815481526020019060010190808311614379575b50505050509050919050565b60008181526001830160205260408120546143e057508154600181810184556000848152602080822090930184905584548482528286019093526040902091909155610946565b506000610946565b600054610100900460ff1661440f5760405162461bcd60e51b8152600401610b92906155d2565b611b6333613e30565b6000818152600183016020526040812054801561450157600061443c600183615228565b855490915060009061445090600190615228565b90508181146144b5576000866000018281548110614470576144706150c9565b9060005260206000200154905080876000018481548110614493576144936150c9565b6000918252602080832090910192909255918252600188019052604090208390555b85548690806144c6576144c661563a565b600190038181906000526020600020016000905590558560010160008681526020019081526020016000206000905560019350505050610946565b6000915050610946565b6060610a64848460008585600080866001600160a01b031685876040516145329190615650565b60006040518083038185875af1925050503d806000811461456f576040519150601f19603f3d011682016040523d82523d6000602084013e614574565b606091505b509150915061458587838387614590565b979650505050505050565b606083156145ff5782516000036145f8576001600160a01b0385163b6145f85760405162461bcd60e51b815260206004820152601d60248201527f416464726573733a2063616c6c20746f206e6f6e2d636f6e74726163740000006044820152606401610b92565b5081610a64565b610a6483838151156146145781518083602001fd5b8060405162461bcd60e51b8152600401610b92919061566c565b828054828255906000526020600020908101928215614669579160200282015b8281111561466957825182559160200191906001019061464e565b50614675929150614679565b5090565b5b80821115614675576000815560010161467a565b6000602082840312156146a057600080fd5b81356001600160e01b03198116811461379c57600080fd5b6000602082840312156146ca57600080fd5b5035919050565b600081518084526020808501945080840160005b83811015614701578151875295820195908201906001016146e5565b509495945050505050565b6001600160a01b0383168152604060208201819052600090610a64908301846146d1565b6001600160a01b0381168114610c3a57600080fd5b803561475081614730565b919050565b634e487b7160e01b600052604160045260246000fd5b604051601f8201601f191681016001600160401b038111828210171561479357614793614755565b604052919050565b600082601f8301126147ac57600080fd5b81356001600160401b038111156147c5576147c5614755565b6147d8601f8201601f191660200161476b565b8181528460208386010111156147ed57600080fd5b816020850160208301376000918101602001919091529392505050565b6000806000806080858703121561482057600080fd5b843561482b81614730565b9350602085013561483b81614730565b92506040850135915060608501356001600160401b0381111561485d57600080fd5b6148698782880161479b565b91505092959194509250565b8015158114610c3a57600080fd5b803561475081614875565b600080600080600080600060e0888a0312156148a957600080fd5b87356148b481614730565b965060208801356148c481614730565b955060408801359450606088013593506080880135925060a0880135915060c08801356148f081614875565b8091505092959891949750929550565b60006001600160401b0382111561491957614919614755565b5060051b60200190565b600082601f83011261493457600080fd5b8135602061494961494483614900565b61476b565b82815260059290921b8401810191818101908684111561496857600080fd5b8286015b8481101561498c57803561497f81614730565b835291830191830161496c565b509695505050505050565b600080604083850312156149aa57600080fd5b82356001600160401b038111156149c057600080fd5b6149cc85828601614923565b92505060208301356149dd81614875565b809150509250929050565b600082601f8301126149f957600080fd5b81356020614a0961494483614900565b82815260059290921b84018101918181019086841115614a2857600080fd5b8286015b8481101561498c5780358352918301918301614a2c565b600080600060608486031215614a5857600080fd5b83356001600160401b0380821115614a6f57600080fd5b614a7b87838801614923565b94506020860135915080821115614a9157600080fd5b50614a9e868287016149e8565b9250506040840135614aaf81614875565b809150509250925092565b60008060408385031215614acd57600080fd5b50508035926020909101359150565b803561ffff8116811461475057600080fd5b600060208284031215614b0057600080fd5b61379c82614adc565b600080600080600060a08688031215614b2157600080fd5b8535614b2c81614730565b94506020860135614b3c81614730565b94979496505050506040830135926060810135926080909101359150565b600060208284031215614b6c57600080fd5b813561379c81614730565b60008060008060008060c08789031215614b9057600080fd5b8635614b9b81614730565b95506020870135614bab81614730565b945060408701356001600160401b03811115614bc657600080fd5b614bd289828a016149e8565b945050606087013592506080870135915060a0870135614bf181614875565b809150509295509295509295565b60208152600061379c60208301846146d1565b6000610100808385031215614c2657600080fd5b604051908101906001600160401b0382118183101715614c4857614c48614755565b8160405283359150614c5982614730565b818152614c6860208501614745565b6020820152614c7960408501614745565b6040820152614c8a60608501614745565b60608201526080840135608082015260a084013560a082015260c084013560c0820152614cb960e08501614883565b60e0820152949350505050565b600080600080600060a08688031215614cde57600080fd5b8535614ce981614730565b94506020860135614cf981614730565b935060408601356001600160401b0380821115614d1557600080fd5b614d2189838a016149e8565b94506060880135915080821115614d3757600080fd5b614d4389838a016149e8565b93506080880135915080821115614d5957600080fd5b50614d668882890161479b565b9150509295509295909350565b60008060408385031215614d8657600080fd5b8235614d9181614730565b9150614d9f60208401614adc565b90509250929050565b60008060008060808587031215614dbe57600080fd5b8435614dc981614730565b93506020850135614dd981614730565b925060408501356001600160401b03811115614df457600080fd5b614e00878288016149e8565b949793965093946060013593505050565b600080600060608486031215614e2657600080fd5b83359250602084013591506040840135614aaf81614730565b600080600080600080600080610100898b031215614e5c57600080fd5b883597506020890135965060408901359550606089013594506080890135935060a08901356001600160401b0380821115614e9657600080fd5b614ea28c838d0161479b565b945060c08b0135915080821115614eb857600080fd5b614ec48c838d0161479b565b935060e08b0135915080821115614eda57600080fd5b50614ee78b828c0161479b565b9150509295985092959890939650565b600080600080600060a08688031215614f0f57600080fd5b8535614f1a81614730565b94506020860135614f2a81614730565b9350604086013592506060860135915060808601356001600160401b03811115614f5357600080fd5b614d668882890161479b565b60008060408385031215614f7257600080fd5b8235614f7d81614730565b915060208301356149dd81614730565b6040808252835182820181905260009190606090818501906020808901865b8381101561502e57815180516001600160a01b0390811687528482015181168588015288820151168887015286810151614ff0888801826001600160a01b03169052565b506080818101519087015260a0808201519087015260c0808201519087015260e0908101511515908601526101009094019390820190600101614fac565b5050868303908701525061458581876146d1565b6020808252601490820152731b9bdd08195e1a5cdd1cc8185d58dd1a5bdb925960621b604082015260600190565b60208082526010908201526f313630b1b5b634b9ba32b2103ab9b2b960811b604082015260600190565b634e487b7160e01b600052601160045260246000fd5b6000600182016150c2576150c261509a565b5060010190565b634e487b7160e01b600052603260045260246000fd5b6001600160a01b0394851681529290931660208301526040820152606081019190915260a06080820181905260009082015260c00190565b600081518084526020808501945080840160005b838110156147015781516001600160a01b03168752958201959082019060010161512b565b6040815260006151636040830185615117565b905082151560208301529392505050565b6020808252601190820152701b9bdd08195e1a5cdd1cc81cd85b195259607a1b604082015260600190565b600060018060a01b03808a168352808916602084015260e060408401526151c960e08401896146d1565b606084019790975294909416608082015260a081019290925260c090910152509392505050565b6060815260006152036060830186615117565b828103602084015261521581866146d1565b9150508215156040830152949350505050565b818103818111156109465761094661509a565b6001600160a01b03978816815295871660208701529390951660408501526060840191909152608083015260a082019290925260c081019190915260e00190565b6001600160a01b03898116825288811660208301528716604082015260608101869052610100608082018190526000906152b8838201886146d1565b60a0840196909652505060c0810192909252151560e09091015295945050505050565b6020808252600d908201526c3737903832b936b4b9b9b4b7b760991b604082015260600190565b60208082526019908201527f6e6f7420616c6c6f776564207061796d656e7420746f6b656e00000000000000604082015260600190565b60208082526018908201527f626c61636b6c697374656420636f6c6c656374696f6e49640000000000000000604082015260600190565b60006020828403121561538257600080fd5b5051919050565b60006020828403121561539b57600080fd5b815161379c81614730565b60208082526017908201527f7a65726f20636f6c6c656374696f6e2061646472657373000000000000000000604082015260600190565b878152600060018060a01b0380891660208401528088166040840152808716606084015260e0608084015261541560e08401876146d1565b941660a08301525060c0015295945050505050565b6001600160a01b03878116825286811660208301528516604082015260c06060820181905260009061545e908301866146d1565b60808301949094525060a00152949350505050565b60005b8381101561548e578181015183820152602001615476565b50506000910152565b600081518084526154af816020860160208601615473565b601f01601f19169290920160200192915050565b60006101208b83528a602084015289604084015288606084015287608084015260018060a01b03871660a08401528060c084015261550381840187615497565b905082810360e08401526155178186615497565b905082810361010084015261552c8185615497565b9c9b505050505050505050505050565b600060018060a01b03808a16835280891660208401525086604083015285606083015284608083015260e060a083015261557960e0830185615497565b82810360c084015261558b8185615497565b9a9950505050505050505050565b80820281158282048414176109465761094661509a565b6000826155cd57634e487b7160e01b600052601260045260246000fd5b500490565b6020808252602b908201527f496e697469616c697a61626c653a20636f6e7472616374206973206e6f74206960408201526a6e697469616c697a696e6760a81b606082015260800190565b60006020828403121561562f57600080fd5b815161379c81614875565b634e487b7160e01b600052603160045260246000fd5b60008251615662818460208701615473565b9190910192915050565b60208152600061379c602083018461549756fea264697066735822122026e0301245fc4b0a511bf021646be76409c5e8fbed3eee40488d69655155c73b64736f6c63430008110033",
  "linkReferences": {},
  "deployedLinkReferences": {}
}