{
  "_format": "hh-sol-artifact-1",
  "contractName": "MockERC1155",
  "sourceName": "contracts/test/MockERC1155.sol",
  "abi": [
    {
      "inputs": [
        {
          "internalType": "string",
          "name": "name_",
          "type": "string"
        },
        {
          "internalType": "string",
          "name": "symbol_",
          "type": "string"
        }
      ],
      "stateMutability": "nonpayable",
      "type": "constructor"
    },
    {
      "anonymous": false,
      "inputs": [
        {
          "indexed": true,
          "internalType": "address",
          "name": "account",
          "type": "address"
        },
        {
          "indexed": true,
          "internalType": "address",
          "name": "operator",
          "type": "address"
        },
        {
          "indexed": false,
          "internalType": "bool",
          "name": "approved",
          "type": "bool"
        }
      ],
      "name": "ApprovalForAll",
      "type": "event"
    },
    {
      "anonymous": false,
      "inputs": [
        {
          "indexed": true,
          "internalType": "address",
          "name": "previousOwner",
          "type": "address"
        },
        {
          "indexed": true,
          "internalType": "address",
          "name": "newOwner",
          "type": "address"
        }
      ],
      "name": "OwnershipTransferred",
      "type": "event"
    },
    {
      "anonymous": false,
      "inputs": [
        {
          "indexed": true,
          "internalType": "address",
          "name": "operator",
          "type": "address"
        },
        {
          "indexed": true,
          "internalType": "address",
          "name": "from",
          "type": "address"
        },
        {
          "indexed": true,
          "internalType": "address",
          "name": "to",
          "type": "address"
        },
        {
          "indexed": false,
          "internalType": "uint256[]",
          "name": "ids",
          "type": "uint256[]"
        },
        {
          "indexed": false,
          "internalType": "uint256[]",
          "name": "values",
          "type": "uint256[]"
        }
      ],
      "name": "TransferBatch",
      "type": "event"
    },
    {
      "anonymous": false,
      "inputs": [
        {
          "indexed": true,
          "internalType": "address",
          "name": "operator",
          "type": "address"
        },
        {
          "indexed": true,
          "internalType": "address",
          "name": "from",
          "type": "address"
        },
        {
          "indexed": true,
          "internalType": "address",
          "name": "to",
          "type": "address"
        },
        {
          "indexed": false,
          "internalType": "uint256",
          "name": "id",
          "type": "uint256"
        },
        {
          "indexed": false,
          "internalType": "uint256",
          "name": "value",
          "type": "uint256"
        }
      ],
      "name": "TransferSingle",
      "type": "event"
    },
    {
      "anonymous": false,
      "inputs": [
        {
          "indexed": false,
          "internalType": "string",
          "name": "value",
          "type": "string"
        },
        {
          "indexed": true,
          "internalType": "uint256",
          "name": "id",
          "type": "uint256"
        }
      ],
      "name": "URI",
      "type": "event"
    },
    {
      "inputs": [
        {
          "internalType": "address",
          "name": "account",
          "type": "address"
        },
        {
          "internalType": "uint256",
          "name": "id",
          "type": "uint256"
        }
      ],
      "name": "balanceOf",
      "outputs": [
        {
          "internalType": "uint256",
          "name": "",
          "type": "uint256"
        }
      ],
      "stateMutability": "view",
      "type": "function"
    },
    {
      "inputs": [
        {
          "internalType": "address[]",
          "name": "accounts",
          "type": "address[]"
        },
        {
          "internalType": "uint256[]",
          "name": "ids",
          "type": "uint256[]"
        }
      ],
      "name": "balanceOfBatch",
      "outputs": [
        {
          "internalType": "uint256[]",
          "name": "",
          "type": "uint256[]"
        }
      ],
      "stateMutability": "view",
      "type": "function"
    },
    {
      "inputs": [
        {
          "internalType": "uint256",
          "name": "id",
          "type": "uint256"
        }
      ],
      "name": "exists",
      "outputs": [
        {
          "internalType": "bool",
          "name": "",
          "type": "bool"
        }
      ],
      "stateMutability": "view",
      "type": "function"
    },
    {
      "inputs": [
        {
          "internalType": "address",
          "name": "account",
          "type": "address"
        },
        {
          "internalType": "address",
          "name": "operator",
          "type": "address"
        }
      ],
      "name": "isApprovedForAll",
      "outputs": [
        {
          "internalType": "bool",
          "name": "",
          "type": "bool"
        }
      ],
      "stateMutability": "view",
      "type": "function"
    },
    {
      "inputs": [
        {
          "internalType": "address",
          "name": "owner_",
          "type": "address"
        },
        {
          "internalType": "uint256",
          "name": "amount_",
          "type": "uint256"
        }
      ],
      "name": "mintNFT",
      "outputs": [],
      "stateMutability": "nonpayable",
      "type": "function"
    },
    {
      "inputs": [],
      "name": "name",
      "outputs": [
        {
          "internalType": "string",
          "name": "",
          "type": "string"
        }
      ],
      "stateMutability": "view",
      "type": "function"
    },
    {
      "inputs": [],
      "name": "owner",
      "outputs": [
        {
          "internalType": "address",
          "name": "",
          "type": "address"
        }
      ],
      "stateMutability": "view",
      "type": "function"
    },
    {
      "inputs": [],
      "name": "renounceOwnership",
      "outputs": [],
      "stateMutability": "nonpayable",
      "type": "function"
    },
    {
      "inputs": [
        {
          "internalType": "address",
          "name": "from",
          "type": "address"
        },
        {
          "internalType": "address",
          "name": "to",
          "type": "address"
        },
        {
          "internalType": "uint256[]",
          "name": "ids",
          "type": "uint256[]"
        },
        {
          "internalType": "uint256[]",
          "name": "amounts",
          "type": "uint256[]"
        },
        {
          "internalType": "bytes",
          "name": "data",
          "type": "bytes"
        }
      ],
      "name": "safeBatchTransferFrom",
      "outputs": [],
      "stateMutability": "nonpayable",
      "type": "function"
    },
    {
      "inputs": [
        {
          "internalType": "address",
          "name": "from",
          "type": "address"
        },
        {
          "internalType": "address",
          "name": "to",
          "type": "address"
        },
        {
          "internalType": "uint256",
          "name": "id",
          "type": "uint256"
        },
        {
          "internalType": "uint256",
          "name": "amount",
          "type": "uint256"
        },
        {
          "internalType": "bytes",
          "name": "data",
          "type": "bytes"
        }
      ],
      "name": "safeTransferFrom",
      "outputs": [],
      "stateMutability": "nonpayable",
      "type": "function"
    },
    {
      "inputs": [
        {
          "internalType": "address",
          "name": "operator",
          "type": "address"
        },
        {
          "internalType": "bool",
          "name": "approved",
          "type": "bool"
        }
      ],
      "name": "setApprovalForAll",
      "outputs": [],
      "stateMutability": "nonpayable",
      "type": "function"
    },
    {
      "inputs": [
        {
          "internalType": "bytes4",
          "name": "interfaceId",
          "type": "bytes4"
        }
      ],
      "name": "supportsInterface",
      "outputs": [
        {
          "internalType": "bool",
          "name": "",
          "type": "bool"
        }
      ],
      "stateMutability": "view",
      "type": "function"
    },
    {
      "inputs": [],
      "name": "symbol",
      "outputs": [
        {
          "internalType": "string",
          "name": "",
          "type": "string"
        }
      ],
      "stateMutability": "view",
      "type": "function"
    },
    {
      "inputs": [
        {
          "internalType": "uint256",
          "name": "id",
          "type": "uint256"
        }
      ],
      "name": "totalSupply",
      "outputs": [
        {
          "internalType": "uint256",
          "name": "",
          "type": "uint256"
        }
      ],
      "stateMutability": "view",
      "type": "function"
    },
    {
      "inputs": [
        {
          "internalType": "address",
          "name": "newOwner",
          "type": "address"
        }
      ],
      "name": "transferOwnership",
      "outputs": [],
      "stateMutability": "nonpayable",
      "type": "function"
    },
    {
      "inputs": [
        {
          "internalType": "uint256",
          "name": "",
          "type": "uint256"
        }
      ],
      "name": "uri",
      "outputs": [
        {
          "internalType": "string",
          "name": "",
          "type": "string"
        }
      ],
      "stateMutability": "view",
      "type": "function"
    }
  ],
  "bytecode": "0x608060405260006008553480156200001657600080fd5b5060405162001d5c38038062001d5c8339810160408190526200003991620001b3565b60408051602081019091526000815262000053816200008a565b506200005f336200009c565b60016005556006620000728382620002ac565b506007620000818282620002ac565b50505062000378565b6002620000988282620002ac565b5050565b600480546001600160a01b038381166001600160a01b0319831681179093556040519116919082907f8be0079c531659141344cd1fd0a4f28419497f9722a3daafe3b4186f6b6457e090600090a35050565b634e487b7160e01b600052604160045260246000fd5b600082601f8301126200011657600080fd5b81516001600160401b0380821115620001335762000133620000ee565b604051601f8301601f19908116603f011681019082821181831017156200015e576200015e620000ee565b816040528381526020925086838588010111156200017b57600080fd5b600091505b838210156200019f578582018301518183018401529082019062000180565b600093810190920192909252949350505050565b60008060408385031215620001c757600080fd5b82516001600160401b0380821115620001df57600080fd5b620001ed8683870162000104565b935060208501519150808211156200020457600080fd5b50620002138582860162000104565b9150509250929050565b600181811c908216806200023257607f821691505b6020821081036200025357634e487b7160e01b600052602260045260246000fd5b50919050565b601f821115620002a757600081815260208120601f850160051c81016020861015620002825750805b601f850160051c820191505b81811015620002a3578281556001016200028e565b5050505b505050565b81516001600160401b03811115620002c857620002c8620000ee565b620002e081620002d984546200021d565b8462000259565b602080601f831160018114620003185760008415620002ff5750858301515b600019600386901b1c1916600185901b178555620002a3565b600085815260208120601f198616915b82811015620003495788860151825594840194600190910190840162000328565b5085821015620003685787850151600019600388901b60f8161c191681555b5050505050600190811b01905550565b6119d480620003886000396000f3fe608060405234801561001057600080fd5b50600436106100ff5760003560e01c8063715018a611610097578063bd85b03911610066578063bd85b0391461021d578063e985e9c51461023d578063f242432a14610279578063f2fde38b1461028c57600080fd5b8063715018a6146101df5780638da5cb5b146101e757806395d89b4114610202578063a22cb4651461020a57600080fd5b80632eb2c2d6116100d35780632eb2c2d6146101755780633c168eab1461018a5780634e1273f41461019d5780634f558e79146101bd57600080fd5b8062fdd58e1461010457806301ffc9a71461012a57806306fdde031461014d5780630e89341c14610162575b600080fd5b61011761011236600461117f565b61029f565b6040519081526020015b60405180910390f35b61013d6101383660046111bf565b610338565b6040519015158152602001610121565b610155610388565b6040516101219190611229565b61015561017036600461123c565b610416565b6101886101833660046113a1565b6104aa565b005b61018861019836600461117f565b6104f6565b6101b06101ab36600461144b565b61053c565b6040516101219190611551565b61013d6101cb36600461123c565b600090815260036020526040902054151590565b610188610666565b6004546040516001600160a01b039091168152602001610121565b61015561067a565b610188610218366004611564565b610687565b61011761022b36600461123c565b60009081526003602052604090205490565b61013d61024b3660046115a0565b6001600160a01b03918216600090815260016020908152604080832093909416825291909152205460ff1690565b6101886102873660046115d3565b610692565b61018861029a366004611638565b6106d7565b60006001600160a01b03831661030f5760405162461bcd60e51b815260206004820152602a60248201527f455243313135353a2061646472657373207a65726f206973206e6f742061207660448201526930b634b21037bbb732b960b11b60648201526084015b60405180910390fd5b506000818152602081815260408083206001600160a01b03861684529091529020545b92915050565b60006001600160e01b03198216636cdb3d1360e11b148061036957506001600160e01b031982166303a24d0760e21b145b8061033257506301ffc9a760e01b6001600160e01b0319831614610332565b6006805461039590611653565b80601f01602080910402602001604051908101604052809291908181526020018280546103c190611653565b801561040e5780601f106103e35761010080835404028352916020019161040e565b820191906000526020600020905b8154815290600101906020018083116103f157829003601f168201915b505050505081565b60606002805461042590611653565b80601f016020809104026020016040519081016040528092919081815260200182805461045190611653565b801561049e5780601f106104735761010080835404028352916020019161049e565b820191906000526020600020905b81548152906001019060200180831161048157829003601f168201915b50505050509050919050565b6001600160a01b0385163314806104c657506104c6853361024b565b6104e25760405162461bcd60e51b81526004016103069061168d565b6104ef8585858585610750565b5050505050565b6104fe61093b565b6008805461052e918491906000610514836116f1565b919050558360405180602001604052806000815250610994565b6105386001600555565b5050565b606081518351146105a15760405162461bcd60e51b815260206004820152602960248201527f455243313135353a206163636f756e747320616e6420696473206c656e677468604482015268040dad2e6dac2e8c6d60bb1b6064820152608401610306565b6000835167ffffffffffffffff8111156105bd576105bd611255565b6040519080825280602002602001820160405280156105e6578160200160208202803683370190505b50905060005b845181101561065e5761063185828151811061060a5761060a61170a565b60200260200101518583815181106106245761062461170a565b602002602001015161029f565b8282815181106106435761064361170a565b6020908102919091010152610657816116f1565b90506105ec565b509392505050565b61066e610ab7565b6106786000610b11565b565b6007805461039590611653565b610538338383610b63565b6001600160a01b0385163314806106ae57506106ae853361024b565b6106ca5760405162461bcd60e51b81526004016103069061168d565b6104ef8585858585610c43565b6106df610ab7565b6001600160a01b0381166107445760405162461bcd60e51b815260206004820152602660248201527f4f776e61626c653a206e6577206f776e657220697320746865207a65726f206160448201526564647265737360d01b6064820152608401610306565b61074d81610b11565b50565b81518351146107b25760405162461bcd60e51b815260206004820152602860248201527f455243313135353a2069647320616e6420616d6f756e7473206c656e677468206044820152670dad2e6dac2e8c6d60c31b6064820152608401610306565b6001600160a01b0384166107d85760405162461bcd60e51b815260040161030690611720565b336107e7818787878787610d7b565b60005b84518110156108cd5760008582815181106108075761080761170a565b6020026020010151905060008583815181106108255761082561170a565b602090810291909101810151600084815280835260408082206001600160a01b038e1683529093529190912054909150818110156108755760405162461bcd60e51b815260040161030690611765565b6000838152602081815260408083206001600160a01b038e8116855292528083208585039055908b168252812080548492906108b29084906117af565b92505081905550505050806108c6906116f1565b90506107ea565b50846001600160a01b0316866001600160a01b0316826001600160a01b03167f4a39dc06d4c0dbc64b70af90fd698a233a518aa5d07e595d983b8c0526c8f7fb878760405161091d9291906117c2565b60405180910390a4610933818787878787610d89565b505050505050565b60026005540361098d5760405162461bcd60e51b815260206004820152601f60248201527f5265656e7472616e637947756172643a207265656e7472616e742063616c6c006044820152606401610306565b6002600555565b6001600160a01b0384166109f45760405162461bcd60e51b815260206004820152602160248201527f455243313135353a206d696e7420746f20746865207a65726f206164647265736044820152607360f81b6064820152608401610306565b336000610a0085610ee4565b90506000610a0d85610ee4565b9050610a1e83600089858589610d7b565b6000868152602081815260408083206001600160a01b038b16845290915281208054879290610a4e9084906117af565b909155505060408051878152602081018790526001600160a01b03808a1692600092918716917fc3d58168c5ae7397731d063d5bbf3d657854427343f4c083240f7aacaa2d0f62910160405180910390a4610aae83600089898989610f2f565b50505050505050565b6004546001600160a01b031633146106785760405162461bcd60e51b815260206004820181905260248201527f4f776e61626c653a2063616c6c6572206973206e6f7420746865206f776e65726044820152606401610306565b600480546001600160a01b038381166001600160a01b0319831681179093556040519116919082907f8be0079c531659141344cd1fd0a4f28419497f9722a3daafe3b4186f6b6457e090600090a35050565b816001600160a01b0316836001600160a01b031603610bd65760405162461bcd60e51b815260206004820152602960248201527f455243313135353a2073657474696e6720617070726f76616c20737461747573604482015268103337b91039b2b63360b91b6064820152608401610306565b6001600160a01b03838116600081815260016020908152604080832094871680845294825291829020805460ff191686151590811790915591519182527f17307eab39ab6107e8899845ad3d59bd9653f200f220920489ca2b5937696c31910160405180910390a3505050565b6001600160a01b038416610c695760405162461bcd60e51b815260040161030690611720565b336000610c7585610ee4565b90506000610c8285610ee4565b9050610c92838989858589610d7b565b6000868152602081815260408083206001600160a01b038c16845290915290205485811015610cd35760405162461bcd60e51b815260040161030690611765565b6000878152602081815260408083206001600160a01b038d8116855292528083208985039055908a16825281208054889290610d109084906117af565b909155505060408051888152602081018890526001600160a01b03808b16928c821692918816917fc3d58168c5ae7397731d063d5bbf3d657854427343f4c083240f7aacaa2d0f62910160405180910390a4610d70848a8a8a8a8a610f2f565b505050505050505050565b610933868686868686610fea565b6001600160a01b0384163b156109335760405163bc197c8160e01b81526001600160a01b0385169063bc197c8190610dcd90899089908890889088906004016117f0565b6020604051808303816000875af1925050508015610e08575060408051601f3d908101601f19168201909252610e059181019061184e565b60015b610eb457610e1461186b565b806308c379a003610e4d5750610e28611887565b80610e335750610e4f565b8060405162461bcd60e51b81526004016103069190611229565b505b60405162461bcd60e51b815260206004820152603460248201527f455243313135353a207472616e7366657220746f206e6f6e2d455243313135356044820152732932b1b2b4bb32b91034b6b83632b6b2b73a32b960611b6064820152608401610306565b6001600160e01b0319811663bc197c8160e01b14610aae5760405162461bcd60e51b815260040161030690611911565b60408051600180825281830190925260609160009190602080830190803683370190505090508281600081518110610f1e57610f1e61170a565b602090810291909101015292915050565b6001600160a01b0384163b156109335760405163f23a6e6160e01b81526001600160a01b0385169063f23a6e6190610f739089908990889088908890600401611959565b6020604051808303816000875af1925050508015610fae575060408051601f3d908101601f19168201909252610fab9181019061184e565b60015b610fba57610e1461186b565b6001600160e01b0319811663f23a6e6160e01b14610aae5760405162461bcd60e51b815260040161030690611911565b6001600160a01b0385166110715760005b835181101561106f578281815181106110165761101661170a565b6020026020010151600360008684815181106110345761103461170a565b60200260200101518152602001908152602001600020600082825461105991906117af565b909155506110689050816116f1565b9050610ffb565b505b6001600160a01b0384166109335760005b8351811015610aae57600084828151811061109f5761109f61170a565b6020026020010151905060008483815181106110bd576110bd61170a565b60200260200101519050600060036000848152602001908152602001600020549050818110156111405760405162461bcd60e51b815260206004820152602860248201527f455243313135353a206275726e20616d6f756e74206578636565647320746f74604482015267616c537570706c7960c01b6064820152608401610306565b6000928352600360205260409092209103905561115c816116f1565b9050611082565b80356001600160a01b038116811461117a57600080fd5b919050565b6000806040838503121561119257600080fd5b61119b83611163565b946020939093013593505050565b6001600160e01b03198116811461074d57600080fd5b6000602082840312156111d157600080fd5b81356111dc816111a9565b9392505050565b6000815180845260005b81811015611209576020818501810151868301820152016111ed565b506000602082860101526020601f19601f83011685010191505092915050565b6020815260006111dc60208301846111e3565b60006020828403121561124e57600080fd5b5035919050565b634e487b7160e01b600052604160045260246000fd5b601f8201601f1916810167ffffffffffffffff8111828210171561129157611291611255565b6040525050565b600067ffffffffffffffff8211156112b2576112b2611255565b5060051b60200190565b600082601f8301126112cd57600080fd5b813560206112da82611298565b6040516112e7828261126b565b83815260059390931b850182019282810191508684111561130757600080fd5b8286015b84811015611322578035835291830191830161130b565b509695505050505050565b600082601f83011261133e57600080fd5b813567ffffffffffffffff81111561135857611358611255565b60405161136f601f8301601f19166020018261126b565b81815284602083860101111561138457600080fd5b816020850160208301376000918101602001919091529392505050565b600080600080600060a086880312156113b957600080fd5b6113c286611163565b94506113d060208701611163565b9350604086013567ffffffffffffffff808211156113ed57600080fd5b6113f989838a016112bc565b9450606088013591508082111561140f57600080fd5b61141b89838a016112bc565b9350608088013591508082111561143157600080fd5b5061143e8882890161132d565b9150509295509295909350565b6000806040838503121561145e57600080fd5b823567ffffffffffffffff8082111561147657600080fd5b818501915085601f83011261148a57600080fd5b8135602061149782611298565b6040516114a4828261126b565b83815260059390931b85018201928281019150898411156114c457600080fd5b948201945b838610156114e9576114da86611163565b825294820194908201906114c9565b965050860135925050808211156114ff57600080fd5b5061150c858286016112bc565b9150509250929050565b600081518084526020808501945080840160005b838110156115465781518752958201959082019060010161152a565b509495945050505050565b6020815260006111dc6020830184611516565b6000806040838503121561157757600080fd5b61158083611163565b91506020830135801515811461159557600080fd5b809150509250929050565b600080604083850312156115b357600080fd5b6115bc83611163565b91506115ca60208401611163565b90509250929050565b600080600080600060a086880312156115eb57600080fd5b6115f486611163565b945061160260208701611163565b93506040860135925060608601359150608086013567ffffffffffffffff81111561162c57600080fd5b61143e8882890161132d565b60006020828403121561164a57600080fd5b6111dc82611163565b600181811c9082168061166757607f821691505b60208210810361168757634e487b7160e01b600052602260045260246000fd5b50919050565b6020808252602e908201527f455243313135353a2063616c6c6572206973206e6f7420746f6b656e206f776e60408201526d195c881bdc88185c1c1c9bdd995960921b606082015260800190565b634e487b7160e01b600052601160045260246000fd5b600060018201611703576117036116db565b5060010190565b634e487b7160e01b600052603260045260246000fd5b60208082526025908201527f455243313135353a207472616e7366657220746f20746865207a65726f206164604082015264647265737360d81b606082015260800190565b6020808252602a908201527f455243313135353a20696e73756666696369656e742062616c616e636520666f60408201526939103a3930b739b332b960b11b606082015260800190565b80820180821115610332576103326116db565b6040815260006117d56040830185611516565b82810360208401526117e78185611516565b95945050505050565b6001600160a01b0386811682528516602082015260a06040820181905260009061181c90830186611516565b828103606084015261182e8186611516565b9050828103608084015261184281856111e3565b98975050505050505050565b60006020828403121561186057600080fd5b81516111dc816111a9565b600060033d11156118845760046000803e5060005160e01c5b90565b600060443d10156118955790565b6040516003193d81016004833e81513d67ffffffffffffffff81602484011181841117156118c557505050505090565b82850191508151818111156118dd5750505050505090565b843d87010160208285010111156118f75750505050505090565b6119066020828601018761126b565b509095945050505050565b60208082526028908201527f455243313135353a204552433131353552656365697665722072656a656374656040820152676420746f6b656e7360c01b606082015260800190565b6001600160a01b03868116825285166020820152604081018490526060810183905260a060808201819052600090611993908301846111e3565b97965050505050505056fea2646970667358221220da0571102d83212f99bb7088c573d78dfd9ae9197f7f06c6015f908af6d88ecd64736f6c63430008110033",
  "linkReferences": {},
  "deployedLinkReferences": {}
}