{
  "_format": "hh-sol-artifact-1",
  "contractName": "WrapperGateway",
  "sourceName": "contracts/WrapperGateway.sol",
  "abi": [
    {
      "inputs": [],
      "stateMutability": "nonpayable",
      "type": "constructor"
    },
    {
      "anonymous": false,
      "inputs": [
        {
          "indexed": false,
          "internalType": "uint8",
          "name": "version",
          "type": "uint8"
        }
      ],
      "name": "Initialized",
      "type": "event"
    },
    {
      "anonymous": false,
      "inputs": [
        {
          "indexed": true,
          "internalType": "address",
          "name": "previousOwner",
          "type": "address"
        },
        {
          "indexed": true,
          "internalType": "address",
          "name": "newOwner",
          "type": "address"
        }
      ],
      "name": "OwnershipTransferred",
      "type": "event"
    },
    {
      "inputs": [],
      "name": "WETH",
      "outputs": [
        {
          "internalType": "contract IWETH9",
          "name": "",
          "type": "address"
        }
      ],
      "stateMutability": "view",
      "type": "function"
    },
    {
      "inputs": [
        {
          "internalType": "uint256",
          "name": "_saleId",
          "type": "uint256"
        }
      ],
      "name": "buyNFT",
      "outputs": [],
      "stateMutability": "payable",
      "type": "function"
    },
    {
      "inputs": [
        {
          "internalType": "address",
          "name": "_marketplace",
          "type": "address"
        },
        {
          "internalType": "address",
          "name": "_WETH",
          "type": "address"
        }
      ],
      "name": "initialize",
      "outputs": [],
      "stateMutability": "nonpayable",
      "type": "function"
    },
    {
      "inputs": [],
      "name": "marketplace",
      "outputs": [
        {
          "internalType": "contract IMarketPlace",
          "name": "",
          "type": "address"
        }
      ],
      "stateMutability": "view",
      "type": "function"
    },
    {
      "inputs": [],
      "name": "owner",
      "outputs": [
        {
          "internalType": "address",
          "name": "",
          "type": "address"
        }
      ],
      "stateMutability": "view",
      "type": "function"
    },
    {
      "inputs": [],
      "name": "renounceOwnership",
      "outputs": [],
      "stateMutability": "nonpayable",
      "type": "function"
    },
    {
      "inputs": [
        {
          "internalType": "address",
          "name": "_marketplace",
          "type": "address"
        }
      ],
      "name": "setMarketplace",
      "outputs": [],
      "stateMutability": "nonpayable",
      "type": "function"
    },
    {
      "inputs": [
        {
          "internalType": "address",
          "name": "newOwner",
          "type": "address"
        }
      ],
      "name": "transferOwnership",
      "outputs": [],
      "stateMutability": "nonpayable",
      "type": "function"
    },
    {
      "stateMutability": "payable",
      "type": "receive"
    }
  ],
  "bytecode": "0x608060405234801561001057600080fd5b5061001961001e565b6100dd565b600054610100900460ff161561008a5760405162461bcd60e51b815260206004820152602760248201527f496e697469616c697a61626c653a20636f6e747261637420697320696e697469604482015266616c697a696e6760c81b606482015260840160405180910390fd5b60005460ff908116146100db576000805460ff191660ff9081179091556040519081527f7f26b83ff96e1f2b6a682f133852f6798a09c465da95921460cefb38474024989060200160405180910390a15b565b610d64806100ec6000396000f3fe60806040526004361061007f5760003560e01c80638da5cb5b1161004e5780638da5cb5b146100f5578063abc8c7af1461012b578063ad5c46481461014b578063f2fde38b1461016b57600080fd5b8063485cc9551461008b57806351ed8288146100ad578063715018a6146100c057806373ad6c2d146100d557600080fd5b3661008657005b600080fd5b34801561009757600080fd5b506100ab6100a6366004610b5c565b61018b565b005b6100ab6100bb366004610b8f565b610346565b3480156100cc57600080fd5b506100ab6105bc565b3480156100e157600080fd5b506100ab6100f0366004610ba8565b6105d0565b34801561010157600080fd5b506033546001600160a01b03165b6040516001600160a01b03909116815260200160405180910390f35b34801561013757600080fd5b5060655461010f906001600160a01b031681565b34801561015757600080fd5b5060665461010f906001600160a01b031681565b34801561017757600080fd5b506100ab610186366004610ba8565b610620565b600054610100900460ff16158080156101ab5750600054600160ff909116105b806101c55750303b1580156101c5575060005460ff166001145b61022d5760405162461bcd60e51b815260206004820152602e60248201527f496e697469616c697a61626c653a20636f6e747261637420697320616c72656160448201526d191e481a5b9a5d1a585b1a5e995960921b60648201526084015b60405180910390fd5b6000805460ff191660011790558015610250576000805461ff0019166101001790555b610258610699565b6001600160a01b03831661027e5760405162461bcd60e51b815260040161022490610bca565b6001600160a01b0382166102cb5760405162461bcd60e51b8152602060048201526014602482015273696e76616c69642057455448206164647265737360601b6044820152606401610224565b606580546001600160a01b038086166001600160a01b03199283161790925560668054928516929091169190911790558015610341576000805461ff0019169055604051600181527f7f26b83ff96e1f2b6a682f133852f6798a09c465da95921460cefb38474024989060200160405180910390a15b505050565b34806103945760405162461bcd60e51b815260206004820152601a60248201527f696e76616c6964206e6174697665546f6b656e20616d6f756e740000000000006044820152606401610224565b6066546040516370a0823160e01b81523060048201526000916001600160a01b0316906370a0823190602401602060405180830381865afa1580156103dd573d6000803e3d6000fd5b505050506040513d601f19601f820116820180604052508101906104019190610c0e565b9050606660009054906101000a90046001600160a01b03166001600160a01b031663d0e30db0836040518263ffffffff1660e01b81526004016000604051808303818588803b15801561045357600080fd5b505af1158015610467573d6000803e3d6000fd5b50506066546040516370a0823160e01b8152306004820152600094506001600160a01b0390911692506370a082319150602401602060405180830381865afa1580156104b7573d6000803e3d6000fd5b505050506040513d601f19601f820116820180604052508101906104db9190610c0e565b905060006104e98383610c27565b905083811461053a5760405162461bcd60e51b815260206004820152601b60248201527f7772617070696e67206e6174697665546f6b656e206661696c656400000000006044820152606401610224565b606554606654610557916001600160a01b039182169116866106c8565b606554604051630a3db05160e31b8152600481018790526001600160a01b03909116906351ed828890602401600060405180830381600087803b15801561059d57600080fd5b505af11580156105b1573d6000803e3d6000fd5b505050505050505050565b6105c46107ff565b6105ce6000610859565b565b6105d86107ff565b6001600160a01b0381166105fe5760405162461bcd60e51b815260040161022490610bca565b606580546001600160a01b0319166001600160a01b0392909216919091179055565b6106286107ff565b6001600160a01b03811661068d5760405162461bcd60e51b815260206004820152602660248201527f4f776e61626c653a206e6577206f776e657220697320746865207a65726f206160448201526564647265737360d01b6064820152608401610224565b61069681610859565b50565b600054610100900460ff166106c05760405162461bcd60e51b815260040161022490610c4e565b6105ce6108ab565b8015806107425750604051636eb1769f60e11b81523060048201526001600160a01b03838116602483015284169063dd62ed3e90604401602060405180830381865afa15801561071c573d6000803e3d6000fd5b505050506040513d601f19601f820116820180604052508101906107409190610c0e565b155b6107ad5760405162461bcd60e51b815260206004820152603660248201527f5361666545524332303a20617070726f76652066726f6d206e6f6e2d7a65726f60448201527520746f206e6f6e2d7a65726f20616c6c6f77616e636560501b6064820152608401610224565b604080516001600160a01b038416602482015260448082018490528251808303909101815260649091019091526020810180516001600160e01b031663095ea7b360e01b1790526103419084906108db565b6033546001600160a01b031633146105ce5760405162461bcd60e51b815260206004820181905260248201527f4f776e61626c653a2063616c6c6572206973206e6f7420746865206f776e65726044820152606401610224565b603380546001600160a01b038381166001600160a01b0319831681179093556040519116919082907f8be0079c531659141344cd1fd0a4f28419497f9722a3daafe3b4186f6b6457e090600090a35050565b600054610100900460ff166108d25760405162461bcd60e51b815260040161022490610c4e565b6105ce33610859565b6000610930826040518060400160405280602081526020017f5361666545524332303a206c6f772d6c6576656c2063616c6c206661696c6564815250856001600160a01b03166109b09092919063ffffffff16565b90508051600014806109515750808060200190518101906109519190610c99565b6103415760405162461bcd60e51b815260206004820152602a60248201527f5361666545524332303a204552433230206f7065726174696f6e20646964206e6044820152691bdd081cdd58d8d9595960b21b6064820152608401610224565b60606109bf84846000856109c7565b949350505050565b606082471015610a285760405162461bcd60e51b815260206004820152602660248201527f416464726573733a20696e73756666696369656e742062616c616e636520666f6044820152651c8818d85b1b60d21b6064820152608401610224565b600080866001600160a01b03168587604051610a449190610cdf565b60006040518083038185875af1925050503d8060008114610a81576040519150601f19603f3d011682016040523d82523d6000602084013e610a86565b606091505b5091509150610a9787838387610aa2565b979650505050505050565b60608315610b11578251600003610b0a576001600160a01b0385163b610b0a5760405162461bcd60e51b815260206004820152601d60248201527f416464726573733a2063616c6c20746f206e6f6e2d636f6e74726163740000006044820152606401610224565b50816109bf565b6109bf8383815115610b265781518083602001fd5b8060405162461bcd60e51b81526004016102249190610cfb565b80356001600160a01b0381168114610b5757600080fd5b919050565b60008060408385031215610b6f57600080fd5b610b7883610b40565b9150610b8660208401610b40565b90509250929050565b600060208284031215610ba157600080fd5b5035919050565b600060208284031215610bba57600080fd5b610bc382610b40565b9392505050565b60208082526024908201527f696e76616c6964206d61726b6574706c61636520636f6e7472616374206164646040820152637265737360e01b606082015260800190565b600060208284031215610c2057600080fd5b5051919050565b81810381811115610c4857634e487b7160e01b600052601160045260246000fd5b92915050565b6020808252602b908201527f496e697469616c697a61626c653a20636f6e7472616374206973206e6f74206960408201526a6e697469616c697a696e6760a81b606082015260800190565b600060208284031215610cab57600080fd5b81518015158114610bc357600080fd5b60005b83811015610cd6578181015183820152602001610cbe565b50506000910152565b60008251610cf1818460208701610cbb565b9190910192915050565b6020815260008251806020840152610d1a816040850160208701610cbb565b601f01601f1916919091016040019291505056fea264697066735822122066c55d52272d9b49ad1da072a94738b0f52e26b40fb852d8acd55b1609b748ec64736f6c63430008110033",
  "linkReferences": {},
  "deployedLinkReferences": {}
}